{
  "contractName": "TokenGating",
  "abi": [
    {
      "inputs": [],
      "stateMutability": "nonpayable",
      "type": "constructor"
    },
    {
      "anonymous": false,
      "inputs": [
        {
          "indexed": true,
          "internalType": "address",
          "name": "owner",
          "type": "address"
        },
        {
          "indexed": true,
          "internalType": "address",
          "name": "approved",
          "type": "address"
        },
        {
          "indexed": true,
          "internalType": "uint256",
          "name": "tokenId",
          "type": "uint256"
        }
      ],
      "name": "Approval",
      "type": "event"
    },
    {
      "anonymous": false,
      "inputs": [
        {
          "indexed": true,
          "internalType": "address",
          "name": "owner",
          "type": "address"
        },
        {
          "indexed": true,
          "internalType": "address",
          "name": "operator",
          "type": "address"
        },
        {
          "indexed": false,
          "internalType": "bool",
          "name": "approved",
          "type": "bool"
        }
      ],
      "name": "ApprovalForAll",
      "type": "event"
    },
    {
      "anonymous": false,
      "inputs": [
        {
          "indexed": true,
          "internalType": "address",
          "name": "previousOwner",
          "type": "address"
        },
        {
          "indexed": true,
          "internalType": "address",
          "name": "newOwner",
          "type": "address"
        }
      ],
      "name": "OwnershipTransferred",
      "type": "event"
    },
    {
      "anonymous": false,
      "inputs": [
        {
          "indexed": false,
          "internalType": "address",
          "name": "account",
          "type": "address"
        }
      ],
      "name": "Paused",
      "type": "event"
    },
    {
      "anonymous": false,
      "inputs": [
        {
          "indexed": true,
          "internalType": "address",
          "name": "from",
          "type": "address"
        },
        {
          "indexed": true,
          "internalType": "address",
          "name": "to",
          "type": "address"
        },
        {
          "indexed": true,
          "internalType": "uint256",
          "name": "tokenId",
          "type": "uint256"
        }
      ],
      "name": "Transfer",
      "type": "event"
    },
    {
      "anonymous": false,
      "inputs": [
        {
          "indexed": false,
          "internalType": "address",
          "name": "account",
          "type": "address"
        }
      ],
      "name": "Unpaused",
      "type": "event"
    },
    {
      "anonymous": false,
      "inputs": [
        {
          "indexed": true,
          "internalType": "string",
          "name": "nameOfCollection",
          "type": "string"
        }
      ],
      "name": "collectionCreated",
      "type": "event"
    },
    {
      "inputs": [
        {
          "internalType": "address",
          "name": "to",
          "type": "address"
        },
        {
          "internalType": "uint256",
          "name": "tokenId",
          "type": "uint256"
        }
      ],
      "name": "approve",
      "outputs": [],
      "stateMutability": "nonpayable",
      "type": "function"
    },
    {
      "inputs": [
        {
          "internalType": "address",
          "name": "owner",
          "type": "address"
        }
      ],
      "name": "balanceOf",
      "outputs": [
        {
          "internalType": "uint256",
          "name": "",
          "type": "uint256"
        }
      ],
      "stateMutability": "view",
      "type": "function",
      "constant": true
    },
    {
      "inputs": [
        {
          "internalType": "uint256",
          "name": "tokenId",
          "type": "uint256"
        }
      ],
      "name": "burn",
      "outputs": [],
      "stateMutability": "nonpayable",
      "type": "function"
    },
    {
      "inputs": [
        {
          "internalType": "uint256",
          "name": "",
          "type": "uint256"
        }
      ],
      "name": "collections",
      "outputs": [
        {
          "internalType": "string",
          "name": "collectionName",
          "type": "string"
        }
      ],
      "stateMutability": "view",
      "type": "function",
      "constant": true
    },
    {
      "inputs": [
        {
          "internalType": "uint256",
          "name": "tokenId",
          "type": "uint256"
        }
      ],
      "name": "getApproved",
      "outputs": [
        {
          "internalType": "address",
          "name": "",
          "type": "address"
        }
      ],
      "stateMutability": "view",
      "type": "function",
      "constant": true
    },
    {
      "inputs": [
        {
          "internalType": "address",
          "name": "owner",
          "type": "address"
        },
        {
          "internalType": "address",
          "name": "operator",
          "type": "address"
        }
      ],
      "name": "isApprovedForAll",
      "outputs": [
        {
          "internalType": "bool",
          "name": "",
          "type": "bool"
        }
      ],
      "stateMutability": "view",
      "type": "function",
      "constant": true
    },
    {
      "inputs": [],
      "name": "name",
      "outputs": [
        {
          "internalType": "string",
          "name": "",
          "type": "string"
        }
      ],
      "stateMutability": "view",
      "type": "function",
      "constant": true
    },
    {
      "inputs": [],
      "name": "owner",
      "outputs": [
        {
          "internalType": "address",
          "name": "",
          "type": "address"
        }
      ],
      "stateMutability": "view",
      "type": "function",
      "constant": true
    },
    {
      "inputs": [
        {
          "internalType": "uint256",
          "name": "tokenId",
          "type": "uint256"
        }
      ],
      "name": "ownerOf",
      "outputs": [
        {
          "internalType": "address",
          "name": "",
          "type": "address"
        }
      ],
      "stateMutability": "view",
      "type": "function",
      "constant": true
    },
    {
      "inputs": [],
      "name": "paused",
      "outputs": [
        {
          "internalType": "bool",
          "name": "",
          "type": "bool"
        }
      ],
      "stateMutability": "view",
      "type": "function",
      "constant": true
    },
    {
      "inputs": [],
      "name": "renounceOwnership",
      "outputs": [],
      "stateMutability": "nonpayable",
      "type": "function"
    },
    {
      "inputs": [
        {
          "internalType": "address",
          "name": "from",
          "type": "address"
        },
        {
          "internalType": "address",
          "name": "to",
          "type": "address"
        },
        {
          "internalType": "uint256",
          "name": "tokenId",
          "type": "uint256"
        }
      ],
      "name": "safeTransferFrom",
      "outputs": [],
      "stateMutability": "nonpayable",
      "type": "function"
    },
    {
      "inputs": [
        {
          "internalType": "address",
          "name": "from",
          "type": "address"
        },
        {
          "internalType": "address",
          "name": "to",
          "type": "address"
        },
        {
          "internalType": "uint256",
          "name": "tokenId",
          "type": "uint256"
        },
        {
          "internalType": "bytes",
          "name": "_data",
          "type": "bytes"
        }
      ],
      "name": "safeTransferFrom",
      "outputs": [],
      "stateMutability": "nonpayable",
      "type": "function"
    },
    {
      "inputs": [
        {
          "internalType": "address",
          "name": "operator",
          "type": "address"
        },
        {
          "internalType": "bool",
          "name": "approved",
          "type": "bool"
        }
      ],
      "name": "setApprovalForAll",
      "outputs": [],
      "stateMutability": "nonpayable",
      "type": "function"
    },
    {
      "inputs": [],
      "name": "symbol",
      "outputs": [
        {
          "internalType": "string",
          "name": "",
          "type": "string"
        }
      ],
      "stateMutability": "view",
      "type": "function",
      "constant": true
    },
    {
      "inputs": [
        {
          "internalType": "uint256",
          "name": "index",
          "type": "uint256"
        }
      ],
      "name": "tokenByIndex",
      "outputs": [
        {
          "internalType": "uint256",
          "name": "",
          "type": "uint256"
        }
      ],
      "stateMutability": "view",
      "type": "function",
      "constant": true
    },
    {
      "inputs": [
        {
          "internalType": "address",
          "name": "owner",
          "type": "address"
        },
        {
          "internalType": "uint256",
          "name": "index",
          "type": "uint256"
        }
      ],
      "name": "tokenOfOwnerByIndex",
      "outputs": [
        {
          "internalType": "uint256",
          "name": "",
          "type": "uint256"
        }
      ],
      "stateMutability": "view",
      "type": "function",
      "constant": true
    },
    {
      "inputs": [],
      "name": "totalSupply",
      "outputs": [
        {
          "internalType": "uint256",
          "name": "",
          "type": "uint256"
        }
      ],
      "stateMutability": "view",
      "type": "function",
      "constant": true
    },
    {
      "inputs": [
        {
          "internalType": "address",
          "name": "from",
          "type": "address"
        },
        {
          "internalType": "address",
          "name": "to",
          "type": "address"
        },
        {
          "internalType": "uint256",
          "name": "tokenId",
          "type": "uint256"
        }
      ],
      "name": "transferFrom",
      "outputs": [],
      "stateMutability": "nonpayable",
      "type": "function"
    },
    {
      "inputs": [
        {
          "internalType": "address",
          "name": "newOwner",
          "type": "address"
        }
      ],
      "name": "transferOwnership",
      "outputs": [],
      "stateMutability": "nonpayable",
      "type": "function"
    },
    {
      "inputs": [
        {
          "internalType": "string",
          "name": "_name",
          "type": "string"
        },
        {
          "internalType": "uint256[]",
          "name": "_ids",
          "type": "uint256[]"
        }
      ],
      "name": "createCollection",
      "outputs": [
        {
          "internalType": "uint256",
          "name": "",
          "type": "uint256"
        }
      ],
      "stateMutability": "nonpayable",
      "type": "function"
    },
    {
      "inputs": [
        {
          "internalType": "string",
          "name": "_name",
          "type": "string"
        }
      ],
      "name": "getCollection",
      "outputs": [
        {
          "internalType": "uint256[]",
          "name": "",
          "type": "uint256[]"
        }
      ],
      "stateMutability": "view",
      "type": "function",
      "constant": true
    },
    {
      "inputs": [
        {
          "internalType": "string",
          "name": "_name",
          "type": "string"
        }
      ],
      "name": "getCollectionSize",
      "outputs": [
        {
          "internalType": "uint256",
          "name": "",
          "type": "uint256"
        }
      ],
      "stateMutability": "view",
      "type": "function",
      "constant": true
    },
    {
      "inputs": [
        {
          "internalType": "string",
          "name": "_name",
          "type": "string"
        },
        {
          "internalType": "string[]",
          "name": "_eligibleColl",
          "type": "string[]"
        },
        {
          "internalType": "string[]",
          "name": "_earlyAccessColl",
          "type": "string[]"
        }
      ],
      "name": "createPromo",
      "outputs": [
        {
          "internalType": "uint256",
          "name": "",
          "type": "uint256"
        }
      ],
      "stateMutability": "nonpayable",
      "type": "function"
    },
    {
      "inputs": [
        {
          "internalType": "string",
          "name": "_name",
          "type": "string"
        }
      ],
      "name": "getPromo",
      "outputs": [
        {
          "components": [
            {
              "internalType": "string",
              "name": "promoName",
              "type": "string"
            },
            {
              "internalType": "string[]",
              "name": "eligibleCollections",
              "type": "string[]"
            },
            {
              "internalType": "string[]",
              "name": "earlyAccessCollections",
              "type": "string[]"
            }
          ],
          "internalType": "struct TokenGating.promo",
          "name": "",
          "type": "tuple"
        }
      ],
      "stateMutability": "view",
      "type": "function",
      "constant": true
    },
    {
      "inputs": [
        {
          "internalType": "address",
          "name": "_visitor",
          "type": "address"
        }
      ],
      "name": "getOwnedCollection",
      "outputs": [
        {
          "internalType": "string[]",
          "name": "",
          "type": "string[]"
        }
      ],
      "stateMutability": "view",
      "type": "function",
      "constant": true
    },
    {
      "inputs": [],
      "name": "getAllPromos",
      "outputs": [
        {
          "components": [
            {
              "internalType": "string",
              "name": "promoName",
              "type": "string"
            },
            {
              "internalType": "string[]",
              "name": "eligibleCollections",
              "type": "string[]"
            },
            {
              "internalType": "string[]",
              "name": "earlyAccessCollections",
              "type": "string[]"
            }
          ],
          "internalType": "struct TokenGating.promo[]",
          "name": "allprom",
          "type": "tuple[]"
        }
      ],
      "stateMutability": "view",
      "type": "function",
      "constant": true
    },
    {
      "inputs": [
        {
          "internalType": "address",
          "name": "_visitor",
          "type": "address"
        }
      ],
      "name": "fetchEligible",
      "outputs": [
        {
          "internalType": "uint256[]",
          "name": "",
          "type": "uint256[]"
        }
      ],
      "stateMutability": "view",
      "type": "function",
      "constant": true
    },
    {
      "inputs": [],
      "name": "pause",
      "outputs": [],
      "stateMutability": "nonpayable",
      "type": "function"
    },
    {
      "inputs": [],
      "name": "unpause",
      "outputs": [],
      "stateMutability": "nonpayable",
      "type": "function"
    },
    {
      "inputs": [
        {
          "internalType": "address",
          "name": "to",
          "type": "address"
        }
      ],
      "name": "safeMint",
      "outputs": [],
      "stateMutability": "nonpayable",
      "type": "function"
    },
    {
      "inputs": [
        {
          "internalType": "uint256",
          "name": "tokenId",
          "type": "uint256"
        }
      ],
      "name": "tokenURI",
      "outputs": [
        {
          "internalType": "string",
          "name": "",
          "type": "string"
        }
      ],
      "stateMutability": "view",
      "type": "function",
      "constant": true
    },
    {
      "inputs": [
        {
          "internalType": "bytes4",
          "name": "interfaceId",
          "type": "bytes4"
        }
      ],
      "name": "supportsInterface",
      "outputs": [
        {
          "internalType": "bool",
          "name": "",
          "type": "bool"
        }
      ],
      "stateMutability": "view",
      "type": "function",
      "constant": true
    }
  ],
  "bytecode": "0x60806040523480156200001157600080fd5b506040518060400160405280600b81526020017f746f6b656e476174696e670000000000000000000000000000000000000000008152506040518060400160405280600481526020017f6761746500000000000000000000000000000000000000000000000000000000815250816000908051906020019062000096929190620001c1565b508060019080519060200190620000af929190620001c1565b5050506000600b60006101000a81548160ff021916908315150217905550620000ed620000e1620000f360201b60201c565b620000fb60201b60201c565b620002d6565b600033905090565b6000600b60019054906101000a900473ffffffffffffffffffffffffffffffffffffffff16905081600b60016101000a81548173ffffffffffffffffffffffffffffffffffffffff021916908373ffffffffffffffffffffffffffffffffffffffff1602179055508173ffffffffffffffffffffffffffffffffffffffff168173ffffffffffffffffffffffffffffffffffffffff167f8be0079c531659141344cd1fd0a4f28419497f9722a3daafe3b4186f6b6457e060405160405180910390a35050565b828054620001cf90620002a0565b90600052602060002090601f016020900481019282620001f357600085556200023f565b82601f106200020e57805160ff19168380011785556200023f565b828001600101855582156200023f579182015b828111156200023e57825182559160200191906001019062000221565b5b5090506200024e919062000252565b5090565b5b808211156200026d57600081600090555060010162000253565b5090565b7f4e487b7100000000000000000000000000000000000000000000000000000000600052602260045260246000fd5b60006002820490506001821680620002b957607f821691505b60208210811415620002d057620002cf62000271565b5b50919050565b615a5380620002e66000396000f3fe608060405234801561001057600080fd5b50600436106101fb5760003560e01c80636352211e1161011a578063a22cb465116100ad578063dba35e381161007c578063dba35e38146105d6578063e985e9c514610606578063ecaf7ee914610636578063f2fde38b14610666578063fdbda0ec14610682576101fb565b8063a22cb46514610550578063b88d4fde1461056c578063c87b56dd14610588578063ce718a3f146105b8576101fb565b80637ac46764116100e95780637ac46764146104da5780638456cb591461050a5780638da5cb5b1461051457806395d89b4114610532576101fb565b80636352211e1461044057806370a0823114610470578063715018a6146104a057806371b8621b146104aa576101fb565b80632b22a5091161019257806342842e0e1161016157806342842e0e146103ba57806342966c68146103d65780634f6ccce7146103f25780635c975abb14610422576101fb565b80632b22a509146103345780632f745c59146103645780633f4ba83a1461039457806340d097c31461039e576101fb565b80630ff79b33116101ce5780630ff79b331461029a5780631715c54f146102ca57806318160ddd146102fa57806323b872dd14610318576101fb565b806301ffc9a71461020057806306fdde0314610230578063081812fc1461024e578063095ea7b31461027e575b600080fd5b61021a60048036038101906102159190613b34565b6106b2565b6040516102279190613b7c565b60405180910390f35b6102386106c4565b6040516102459190613c30565b60405180910390f35b61026860048036038101906102639190613c88565b610756565b6040516102759190613cf6565b60405180910390f35b61029860048036038101906102939190613d3d565b6107db565b005b6102b460048036038101906102af9190613eb2565b6108f3565b6040516102c19190613fb9565b60405180910390f35b6102e460048036038101906102df9190613fdb565b610ab0565b6040516102f19190614114565b60405180910390f35b610302610c46565b60405161030f9190614145565b60405180910390f35b610332600480360381019061032d9190614160565b610c53565b005b61034e6004803603810190610349919061427b565b610cb3565b60405161035b9190614145565b60405180910390f35b61037e60048036038101906103799190613d3d565b610df0565b60405161038b9190614145565b60405180910390f35b61039c610e95565b005b6103b860048036038101906103b39190613fdb565b610f1b565b005b6103d460048036038101906103cf9190614160565b61101b565b005b6103f060048036038101906103eb9190613c88565b61103b565b005b61040c60048036038101906104079190613c88565b611097565b6040516104199190614145565b60405180910390f35b61042a611108565b6040516104379190613b7c565b60405180910390f35b61045a60048036038101906104559190613c88565b61111f565b6040516104679190613cf6565b60405180910390f35b61048a60048036038101906104859190613fdb565b6111d1565b6040516104979190614145565b60405180910390f35b6104a8611289565b005b6104c460048036038101906104bf91906143d4565b611311565b6040516104d19190614145565b60405180910390f35b6104f460048036038101906104ef9190613eb2565b6113cb565b6040516105019190614145565b60405180910390f35b61051261153a565b005b61051c6115c0565b6040516105299190613cf6565b60405180910390f35b61053a6115ea565b6040516105479190613c30565b60405180910390f35b61056a600480360381019061056591906144a7565b61167c565b005b61058660048036038101906105819190614588565b611692565b005b6105a2600480360381019061059d9190613c88565b6116f4565b6040516105af9190613c30565b60405180910390f35b6105c0611706565b6040516105cd91906147b1565b60405180910390f35b6105f060048036038101906105eb9190613eb2565b6119af565b6040516105fd9190614831565b60405180910390f35b610620600480360381019061061b9190614853565b611cc0565b60405161062d9190613b7c565b60405180910390f35b610650600480360381019061064b9190613fdb565b611d54565b60405161065d9190613fb9565b60405180910390f35b610680600480360381019061067b9190613fdb565b611f17565b005b61069c60048036038101906106979190613c88565b61200f565b6040516106a99190613c30565b60405180910390f35b60006106bd826120c5565b9050919050565b6060600080546106d3906148c2565b80601f01602080910402602001604051908101604052809291908181526020018280546106ff906148c2565b801561074c5780601f106107215761010080835404028352916020019161074c565b820191906000526020600020905b81548152906001019060200180831161072f57829003601f168201915b5050505050905090565b60006107618261213f565b6107a0576040517f08c379a000000000000000000000000000000000000000000000000000000000815260040161079790614966565b60405180910390fd5b6004600083815260200190815260200160002060009054906101000a900473ffffffffffffffffffffffffffffffffffffffff169050919050565b60006107e68261111f565b90508073ffffffffffffffffffffffffffffffffffffffff168373ffffffffffffffffffffffffffffffffffffffff161415610857576040517f08c379a000000000000000000000000000000000000000000000000000000000815260040161084e906149f8565b60405180910390fd5b8073ffffffffffffffffffffffffffffffffffffffff166108766121ab565b73ffffffffffffffffffffffffffffffffffffffff1614806108a557506108a48161089f6121ab565b611cc0565b5b6108e4576040517f08c379a00000000000000000000000000000000000000000000000000000000081526004016108db90614a8a565b60405180910390fd5b6108ee83836121b3565b505050565b60606000600d80549050905060005b81811015610aa2576000600d82815481106109205761091f614aaa565b5b9060005260206000209060020201600001805461093c906148c2565b80601f0160208091040260200160405190810160405280929190818152602001828054610968906148c2565b80156109b55780601f1061098a576101008083540402835291602001916109b5565b820191906000526020600020905b81548152906001019060200180831161099857829003601f168201915b50505050509050846040516020016109cd9190614b15565b60405160208183030381529060405280519060200120816040516020016109f49190614b15565b604051602081830303815290604052805190602001201415610a8e57600d8281548110610a2457610a23614aaa565b5b9060005260206000209060020201600101805480602002602001604051908101604052809291908181526020018280548015610a7f57602002820191906000526020600020905b815481526020019060010190808311610a6b575b50505050509350505050610aab565b508080610a9a90614b5b565b915050610902565b50606080925050505b919050565b60606000610abd836111d1565b905060008111610b02576040517f08c379a0000000000000000000000000000000000000000000000000000000008152600401610af990614bf0565b60405180910390fd5b60008167ffffffffffffffff811115610b1e57610b1d613d87565b5b604051908082528060200260200182016040528015610b5157816020015b6060815260200190600190039081610b3c5790505b50905060005b82811015610c3b576000610b6b8683610df0565b9050600f60008281526020019081526020016000208054610b8b906148c2565b80601f0160208091040260200160405190810160405280929190818152602001828054610bb7906148c2565b8015610c045780601f10610bd957610100808354040283529160200191610c04565b820191906000526020600020905b815481529060010190602001808311610be757829003601f168201915b5050505050838381518110610c1c57610c1b614aaa565b5b6020026020010181905250508080610c3390614b5b565b915050610b57565b508092505050919050565b6000600880549050905090565b610c64610c5e6121ab565b8261226c565b610ca3576040517f08c379a0000000000000000000000000000000000000000000000000000000008152600401610c9a90614c82565b60405180910390fd5b610cae83838361234a565b505050565b6000610cbd6138d9565b83816000018190525082816020018190525060008351905060005b81811015610d355785600f6000878481518110610cf857610cf7614aaa565b5b602002602001015181526020019081526020016000209080519060200190610d219291906138f3565b508080610d2d90614b5b565b915050610cd8565b50600d8290806001815401808255809150506001900390600052602060002090600202016000909190919091506000820151816000019080519060200190610d7e9291906138f3565b506020820151816001019080519060200190610d9b929190613979565b50505084604051610dac9190614b15565b60405180910390207fab094daecd1bb06bcedf763ff46638aee745228dca13a4ff74930c66dd144d5960405160405180910390a2600d805490509250505092915050565b6000610dfb836111d1565b8210610e3c576040517f08c379a0000000000000000000000000000000000000000000000000000000008152600401610e3390614d14565b60405180910390fd5b600660008473ffffffffffffffffffffffffffffffffffffffff1673ffffffffffffffffffffffffffffffffffffffff168152602001908152602001600020600083815260200190815260200160002054905092915050565b610e9d6121ab565b73ffffffffffffffffffffffffffffffffffffffff16610ebb6115c0565b73ffffffffffffffffffffffffffffffffffffffff1614610f11576040517f08c379a0000000000000000000000000000000000000000000000000000000008152600401610f0890614d80565b60405180910390fd5b610f196125b1565b565b610f236121ab565b73ffffffffffffffffffffffffffffffffffffffff16610f416115c0565b73ffffffffffffffffffffffffffffffffffffffff1614610f97576040517f08c379a0000000000000000000000000000000000000000000000000000000008152600401610f8e90614d80565b60405180910390fd5b6000610fa3600c612653565b905060006001600983610fb69190614dcf565b610fc09190614e00565b9050610fcc600c612661565b610fd68383612677565b6000610fe0612695565b610fe9836126b5565b604051602001610ffa929190614ea2565b60405160208183030381529060405290506110158382612816565b50505050565b61103683838360405180602001604052806000815250611692565b505050565b61104c6110466121ab565b8261226c565b61108b576040517f08c379a000000000000000000000000000000000000000000000000000000000815260040161108290614f43565b60405180910390fd5b6110948161288a565b50565b60006110a1610c46565b82106110e2576040517f08c379a00000000000000000000000000000000000000000000000000000000081526004016110d990614fd5565b60405180910390fd5b600882815481106110f6576110f5614aaa565b5b90600052602060002001549050919050565b6000600b60009054906101000a900460ff16905090565b6000806002600084815260200190815260200160002060009054906101000a900473ffffffffffffffffffffffffffffffffffffffff169050600073ffffffffffffffffffffffffffffffffffffffff168173ffffffffffffffffffffffffffffffffffffffff1614156111c8576040517f08c379a00000000000000000000000000000000000000000000000000000000081526004016111bf90615067565b60405180910390fd5b80915050919050565b60008073ffffffffffffffffffffffffffffffffffffffff168273ffffffffffffffffffffffffffffffffffffffff161415611242576040517f08c379a0000000000000000000000000000000000000000000000000000000008152600401611239906150f9565b60405180910390fd5b600360008373ffffffffffffffffffffffffffffffffffffffff1673ffffffffffffffffffffffffffffffffffffffff168152602001908152602001600020549050919050565b6112916121ab565b73ffffffffffffffffffffffffffffffffffffffff166112af6115c0565b73ffffffffffffffffffffffffffffffffffffffff1614611305576040517f08c379a00000000000000000000000000000000000000000000000000000000081526004016112fc90614d80565b60405180910390fd5b61130f6000612896565b565b600061131b6139c6565b848160000181905250838160200181905250828160400181905250600e819080600181540180825580915050600190039060005260206000209060030201600090919091909150600082015181600001908051906020019061137e9291906138f3565b50602082015181600101908051906020019061139b9291906139e7565b5060408201518160020190805190602001906113b89291906139e7565b505050600e805490509150509392505050565b600080600d80549050905060005b8181101561152e576000600d82815481106113f7576113f6614aaa565b5b90600052602060002090600202016000018054611413906148c2565b80601f016020809104026020016040519081016040528092919081815260200182805461143f906148c2565b801561148c5780601f106114615761010080835404028352916020019161148c565b820191906000526020600020905b81548152906001019060200180831161146f57829003601f168201915b50505050509050846040516020016114a49190614b15565b60405160208183030381529060405280519060200120816040516020016114cb9190614b15565b60405160208183030381529060405280519060200120141561151a57600d82815481106114fb576114fa614aaa565b5b9060005260206000209060020201600101805490509350505050611535565b50808061152690614b5b565b9150506113d9565b5060009150505b919050565b6115426121ab565b73ffffffffffffffffffffffffffffffffffffffff166115606115c0565b73ffffffffffffffffffffffffffffffffffffffff16146115b6576040517f08c379a00000000000000000000000000000000000000000000000000000000081526004016115ad90614d80565b60405180910390fd5b6115be61295c565b565b6000600b60019054906101000a900473ffffffffffffffffffffffffffffffffffffffff16905090565b6060600180546115f9906148c2565b80601f0160208091040260200160405190810160405280929190818152602001828054611625906148c2565b80156116725780601f1061164757610100808354040283529160200191611672565b820191906000526020600020905b81548152906001019060200180831161165557829003601f168201915b5050505050905090565b61168e6116876121ab565b83836129ff565b5050565b6116a361169d6121ab565b8361226c565b6116e2576040517f08c379a00000000000000000000000000000000000000000000000000000000081526004016116d990614c82565b60405180910390fd5b6116ee84848484612b6c565b50505050565b60606116ff82612bc8565b9050919050565b60606000600e805480602002602001604051908101604052809291908181526020016000905b828210156119a2578382906000526020600020906003020160405180606001604052908160008201805461175f906148c2565b80601f016020809104026020016040519081016040528092919081815260200182805461178b906148c2565b80156117d85780601f106117ad576101008083540402835291602001916117d8565b820191906000526020600020905b8154815290600101906020018083116117bb57829003601f168201915b5050505050815260200160018201805480602002602001604051908101604052809291908181526020016000905b828210156118b2578382906000526020600020018054611825906148c2565b80601f0160208091040260200160405190810160405280929190818152602001828054611851906148c2565b801561189e5780601f106118735761010080835404028352916020019161189e565b820191906000526020600020905b81548152906001019060200180831161188157829003601f168201915b505050505081526020019060010190611806565b50505050815260200160028201805480602002602001604051908101604052809291908181526020016000905b8282101561198b5783829060005260206000200180546118fe906148c2565b80601f016020809104026020016040519081016040528092919081815260200182805461192a906148c2565b80156119775780601f1061194c57610100808354040283529160200191611977565b820191906000526020600020905b81548152906001019060200180831161195a57829003601f168201915b5050505050815260200190600101906118df565b50505050815250508152602001906001019061172c565b5050505090508091505090565b6119b76139c6565b6000600e80549050905060005b81811015611cb8576000600e82815481106119e2576119e1614aaa565b5b9060005260206000209060030201604051806060016040529081600082018054611a0b906148c2565b80601f0160208091040260200160405190810160405280929190818152602001828054611a37906148c2565b8015611a845780601f10611a5957610100808354040283529160200191611a84565b820191906000526020600020905b815481529060010190602001808311611a6757829003601f168201915b5050505050815260200160018201805480602002602001604051908101604052809291908181526020016000905b82821015611b5e578382906000526020600020018054611ad1906148c2565b80601f0160208091040260200160405190810160405280929190818152602001828054611afd906148c2565b8015611b4a5780601f10611b1f57610100808354040283529160200191611b4a565b820191906000526020600020905b815481529060010190602001808311611b2d57829003601f168201915b505050505081526020019060010190611ab2565b50505050815260200160028201805480602002602001604051908101604052809291908181526020016000905b82821015611c37578382906000526020600020018054611baa906148c2565b80601f0160208091040260200160405190810160405280929190818152602001828054611bd6906148c2565b8015611c235780601f10611bf857610100808354040283529160200191611c23565b820191906000526020600020905b815481529060010190602001808311611c0657829003601f168201915b505050505081526020019060010190611b8b565b505050508152505090508060000151604051602001611c569190614b15565b6040516020818303038152906040528051906020012085604051602001611c7d9190614b15565b604051602081830303815290604052805190602001201415611ca457809350505050611cbb565b508080611cb090614b5b565b9150506119c4565b50505b919050565b6000600560008473ffffffffffffffffffffffffffffffffffffffff1673ffffffffffffffffffffffffffffffffffffffff16815260200190815260200160002060008373ffffffffffffffffffffffffffffffffffffffff1673ffffffffffffffffffffffffffffffffffffffff16815260200190815260200160002060009054906101000a900460ff16905092915050565b60606000611d61836111d1565b11611da1576040517f08c379a0000000000000000000000000000000000000000000000000000000008152600401611d9890615165565b60405180910390fd5b6000611dae836000610df0565b90506000611dba6115c0565b90506000611dc7826111d1565b9050600080600283611dd99190615185565b67ffffffffffffffff811115611df257611df1613d87565b5b604051908082528060200260200182016040528015611e205781602001602082028036833780820191505090505b50905060006002600187611e349190614e00565b611e3e9190614dcf565b14611e4857600191505b8115611eb057600080600190505b84811015611ea957611e688682610df0565b838381518110611e7b57611e7a614aaa565b5b6020026020010181815250508180611e9290614b5b565b925050600281611ea29190614e00565b9050611e56565b5050611f0a565b6000805b84811015611f0757611ec68682610df0565b838381518110611ed957611ed8614aaa565b5b6020026020010181815250508180611ef090614b5b565b925050600281611f009190614e00565b9050611eb4565b50505b8095505050505050919050565b611f1f6121ab565b73ffffffffffffffffffffffffffffffffffffffff16611f3d6115c0565b73ffffffffffffffffffffffffffffffffffffffff1614611f93576040517f08c379a0000000000000000000000000000000000000000000000000000000008152600401611f8a90614d80565b60405180910390fd5b600073ffffffffffffffffffffffffffffffffffffffff168173ffffffffffffffffffffffffffffffffffffffff161415612003576040517f08c379a0000000000000000000000000000000000000000000000000000000008152600401611ffa90615228565b60405180910390fd5b61200c81612896565b50565b600d818154811061201f57600080fd5b9060005260206000209060020201600091509050806000018054612042906148c2565b80601f016020809104026020016040519081016040528092919081815260200182805461206e906148c2565b80156120bb5780601f10612090576101008083540402835291602001916120bb565b820191906000526020600020905b81548152906001019060200180831161209e57829003601f168201915b5050505050905081565b60007f780e9d63000000000000000000000000000000000000000000000000000000007bffffffffffffffffffffffffffffffffffffffffffffffffffffffff1916827bffffffffffffffffffffffffffffffffffffffffffffffffffffffff19161480612138575061213782612d1a565b5b9050919050565b60008073ffffffffffffffffffffffffffffffffffffffff166002600084815260200190815260200160002060009054906101000a900473ffffffffffffffffffffffffffffffffffffffff1673ffffffffffffffffffffffffffffffffffffffff1614159050919050565b600033905090565b816004600083815260200190815260200160002060006101000a81548173ffffffffffffffffffffffffffffffffffffffff021916908373ffffffffffffffffffffffffffffffffffffffff160217905550808273ffffffffffffffffffffffffffffffffffffffff166122268361111f565b73ffffffffffffffffffffffffffffffffffffffff167f8c5be1e5ebec7d5bd14f71427d1e84f3dd0314c0f7b2291e5b200ac8c7c3b92560405160405180910390a45050565b60006122778261213f565b6122b6576040517f08c379a00000000000000000000000000000000000000000000000000000000081526004016122ad906152ba565b60405180910390fd5b60006122c18361111f565b90508073ffffffffffffffffffffffffffffffffffffffff168473ffffffffffffffffffffffffffffffffffffffff16148061233057508373ffffffffffffffffffffffffffffffffffffffff1661231884610756565b73ffffffffffffffffffffffffffffffffffffffff16145b8061234157506123408185611cc0565b5b91505092915050565b8273ffffffffffffffffffffffffffffffffffffffff1661236a8261111f565b73ffffffffffffffffffffffffffffffffffffffff16146123c0576040517f08c379a00000000000000000000000000000000000000000000000000000000081526004016123b79061534c565b60405180910390fd5b600073ffffffffffffffffffffffffffffffffffffffff168273ffffffffffffffffffffffffffffffffffffffff161415612430576040517f08c379a0000000000000000000000000000000000000000000000000000000008152600401612427906153de565b60405180910390fd5b61243b838383612dfc565b6124466000826121b3565b6001600360008573ffffffffffffffffffffffffffffffffffffffff1673ffffffffffffffffffffffffffffffffffffffff168152602001908152602001600020600082825461249691906153fe565b925050819055506001600360008473ffffffffffffffffffffffffffffffffffffffff1673ffffffffffffffffffffffffffffffffffffffff16815260200190815260200160002060008282546124ed9190614e00565b92505081905550816002600083815260200190815260200160002060006101000a81548173ffffffffffffffffffffffffffffffffffffffff021916908373ffffffffffffffffffffffffffffffffffffffff160217905550808273ffffffffffffffffffffffffffffffffffffffff168473ffffffffffffffffffffffffffffffffffffffff167fddf252ad1be2c89b69c2b068fc378daa952ba7f163c4a11628f55a4df523b3ef60405160405180910390a46125ac838383612e54565b505050565b6125b9611108565b6125f8576040517f08c379a00000000000000000000000000000000000000000000000000000000081526004016125ef9061547e565b60405180910390fd5b6000600b60006101000a81548160ff0219169083151502179055507f5db9ee0a495bf2e6ff9c91a7834c1ba4fdd244a5e8aa4e537bd38aeae4b073aa61263c6121ab565b6040516126499190613cf6565b60405180910390a1565b600081600001549050919050565b6001816000016000828254019250508190555050565b612691828260405180602001604052806000815250612e59565b5050565b60606040518060800160405280605181526020016159cd60519139905090565b606060008214156126fd576040518060400160405280600181526020017f30000000000000000000000000000000000000000000000000000000000000008152509050612811565b600082905060005b6000821461272f57808061271890614b5b565b915050600a826127289190615185565b9150612705565b60008167ffffffffffffffff81111561274b5761274a613d87565b5b6040519080825280601f01601f19166020018201604052801561277d5781602001600182028036833780820191505090505b5090505b6000851461280a5760018261279691906153fe565b9150600a856127a59190614dcf565b60306127b19190614e00565b60f81b8183815181106127c7576127c6614aaa565b5b60200101907effffffffffffffffffffffffffffffffffffffffffffffffffffffffffffff1916908160001a905350600a856128039190615185565b9450612781565b8093505050505b919050565b61281f8261213f565b61285e576040517f08c379a000000000000000000000000000000000000000000000000000000000815260040161285590615510565b60405180910390fd5b80600a600084815260200190815260200160002090805190602001906128859291906138f3565b505050565b61289381612eb4565b50565b6000600b60019054906101000a900473ffffffffffffffffffffffffffffffffffffffff16905081600b60016101000a81548173ffffffffffffffffffffffffffffffffffffffff021916908373ffffffffffffffffffffffffffffffffffffffff1602179055508173ffffffffffffffffffffffffffffffffffffffff168173ffffffffffffffffffffffffffffffffffffffff167f8be0079c531659141344cd1fd0a4f28419497f9722a3daafe3b4186f6b6457e060405160405180910390a35050565b612964611108565b156129a4576040517f08c379a000000000000000000000000000000000000000000000000000000000815260040161299b9061557c565b60405180910390fd5b6001600b60006101000a81548160ff0219169083151502179055507f62e78cea01bee320cd4e420270b5ea74000d11b0c9f74754ebdbfc544b05a2586129e86121ab565b6040516129f59190613cf6565b60405180910390a1565b8173ffffffffffffffffffffffffffffffffffffffff168373ffffffffffffffffffffffffffffffffffffffff161415612a6e576040517f08c379a0000000000000000000000000000000000000000000000000000000008152600401612a65906155e8565b60405180910390fd5b80600560008573ffffffffffffffffffffffffffffffffffffffff1673ffffffffffffffffffffffffffffffffffffffff16815260200190815260200160002060008473ffffffffffffffffffffffffffffffffffffffff1673ffffffffffffffffffffffffffffffffffffffff16815260200190815260200160002060006101000a81548160ff0219169083151502179055508173ffffffffffffffffffffffffffffffffffffffff168373ffffffffffffffffffffffffffffffffffffffff167f17307eab39ab6107e8899845ad3d59bd9653f200f220920489ca2b5937696c3183604051612b5f9190613b7c565b60405180910390a3505050565b612b7784848461234a565b612b8384848484612f07565b612bc2576040517f08c379a0000000000000000000000000000000000000000000000000000000008152600401612bb99061567a565b60405180910390fd5b50505050565b6060612bd38261213f565b612c12576040517f08c379a0000000000000000000000000000000000000000000000000000000008152600401612c099061570c565b60405180910390fd5b6000600a60008481526020019081526020016000208054612c32906148c2565b80601f0160208091040260200160405190810160405280929190818152602001828054612c5e906148c2565b8015612cab5780601f10612c8057610100808354040283529160200191612cab565b820191906000526020600020905b815481529060010190602001808311612c8e57829003601f168201915b505050505090506000612cbc612695565b9050600081511415612cd2578192505050612d15565b600082511115612d07578082604051602001612cef92919061572c565b60405160208183030381529060405292505050612d15565b612d108461308f565b925050505b919050565b60007f80ac58cd000000000000000000000000000000000000000000000000000000007bffffffffffffffffffffffffffffffffffffffffffffffffffffffff1916827bffffffffffffffffffffffffffffffffffffffffffffffffffffffff19161480612de557507f5b5e139f000000000000000000000000000000000000000000000000000000007bffffffffffffffffffffffffffffffffffffffffffffffffffffffff1916827bffffffffffffffffffffffffffffffffffffffffffffffffffffffff1916145b80612df55750612df482613136565b5b9050919050565b612e04611108565b15612e44576040517f08c379a0000000000000000000000000000000000000000000000000000000008152600401612e3b9061557c565b60405180910390fd5b612e4f8383836131a0565b505050565b505050565b612e6383836132b4565b612e706000848484612f07565b612eaf576040517f08c379a0000000000000000000000000000000000000000000000000000000008152600401612ea69061567a565b60405180910390fd5b505050565b612ebd8161348e565b6000600a60008381526020019081526020016000208054612edd906148c2565b905014612f0457600a60008281526020019081526020016000206000612f039190613a47565b5b50565b6000612f288473ffffffffffffffffffffffffffffffffffffffff166135ab565b15613082578373ffffffffffffffffffffffffffffffffffffffff1663150b7a02612f516121ab565b8786866040518563ffffffff1660e01b8152600401612f7394939291906157a5565b6020604051808303816000875af1925050508015612faf57506040513d601f19601f82011682018060405250810190612fac9190615806565b60015b613032573d8060008114612fdf576040519150601f19603f3d011682016040523d82523d6000602084013e612fe4565b606091505b5060008151141561302a576040517f08c379a00000000000000000000000000000000000000000000000000000000081526004016130219061567a565b60405180910390fd5b805181602001fd5b63150b7a0260e01b7bffffffffffffffffffffffffffffffffffffffffffffffffffffffff1916817bffffffffffffffffffffffffffffffffffffffffffffffffffffffff191614915050613087565b600190505b949350505050565b606061309a8261213f565b6130d9576040517f08c379a00000000000000000000000000000000000000000000000000000000081526004016130d0906158a5565b60405180910390fd5b60006130e3612695565b90506000815111613103576040518060200160405280600081525061312e565b8061310d846126b5565b60405160200161311e92919061572c565b6040516020818303038152906040525b915050919050565b60007f01ffc9a7000000000000000000000000000000000000000000000000000000007bffffffffffffffffffffffffffffffffffffffffffffffffffffffff1916827bffffffffffffffffffffffffffffffffffffffffffffffffffffffff1916149050919050565b6131ab8383836135ce565b600073ffffffffffffffffffffffffffffffffffffffff168373ffffffffffffffffffffffffffffffffffffffff1614156131ee576131e9816135d3565b61322d565b8173ffffffffffffffffffffffffffffffffffffffff168373ffffffffffffffffffffffffffffffffffffffff161461322c5761322b838261361c565b5b5b600073ffffffffffffffffffffffffffffffffffffffff168273ffffffffffffffffffffffffffffffffffffffff1614156132705761326b81613789565b6132af565b8273ffffffffffffffffffffffffffffffffffffffff168273ffffffffffffffffffffffffffffffffffffffff16146132ae576132ad828261385a565b5b5b505050565b600073ffffffffffffffffffffffffffffffffffffffff168273ffffffffffffffffffffffffffffffffffffffff161415613324576040517f08c379a000000000000000000000000000000000000000000000000000000000815260040161331b90615911565b60405180910390fd5b61332d8161213f565b1561336d576040517f08c379a00000000000000000000000000000000000000000000000000000000081526004016133649061597d565b60405180910390fd5b61337960008383612dfc565b6001600360008473ffffffffffffffffffffffffffffffffffffffff1673ffffffffffffffffffffffffffffffffffffffff16815260200190815260200160002060008282546133c99190614e00565b92505081905550816002600083815260200190815260200160002060006101000a81548173ffffffffffffffffffffffffffffffffffffffff021916908373ffffffffffffffffffffffffffffffffffffffff160217905550808273ffffffffffffffffffffffffffffffffffffffff16600073ffffffffffffffffffffffffffffffffffffffff167fddf252ad1be2c89b69c2b068fc378daa952ba7f163c4a11628f55a4df523b3ef60405160405180910390a461348a60008383612e54565b5050565b60006134998261111f565b90506134a781600084612dfc565b6134b26000836121b3565b6001600360008373ffffffffffffffffffffffffffffffffffffffff1673ffffffffffffffffffffffffffffffffffffffff168152602001908152602001600020600082825461350291906153fe565b925050819055506002600083815260200190815260200160002060006101000a81549073ffffffffffffffffffffffffffffffffffffffff021916905581600073ffffffffffffffffffffffffffffffffffffffff168273ffffffffffffffffffffffffffffffffffffffff167fddf252ad1be2c89b69c2b068fc378daa952ba7f163c4a11628f55a4df523b3ef60405160405180910390a46135a781600084612e54565b5050565b6000808273ffffffffffffffffffffffffffffffffffffffff163b119050919050565b505050565b6008805490506009600083815260200190815260200160002081905550600881908060018154018082558091505060019003906000526020600020016000909190919091505550565b60006001613629846111d1565b61363391906153fe565b9050600060076000848152602001908152602001600020549050818114613718576000600660008673ffffffffffffffffffffffffffffffffffffffff1673ffffffffffffffffffffffffffffffffffffffff168152602001908152602001600020600084815260200190815260200160002054905080600660008773ffffffffffffffffffffffffffffffffffffffff1673ffffffffffffffffffffffffffffffffffffffff168152602001908152602001600020600084815260200190815260200160002081905550816007600083815260200190815260200160002081905550505b6007600084815260200190815260200160002060009055600660008573ffffffffffffffffffffffffffffffffffffffff1673ffffffffffffffffffffffffffffffffffffffff16815260200190815260200160002060008381526020019081526020016000206000905550505050565b6000600160088054905061379d91906153fe565b90506000600960008481526020019081526020016000205490506000600883815481106137cd576137cc614aaa565b5b9060005260206000200154905080600883815481106137ef576137ee614aaa565b5b90600052602060002001819055508160096000838152602001908152602001600020819055506009600085815260200190815260200160002060009055600880548061383e5761383d61599d565b5b6001900381819060005260206000200160009055905550505050565b6000613865836111d1565b905081600660008573ffffffffffffffffffffffffffffffffffffffff1673ffffffffffffffffffffffffffffffffffffffff168152602001908152602001600020600083815260200190815260200160002081905550806007600084815260200190815260200160002081905550505050565b604051806040016040528060608152602001606081525090565b8280546138ff906148c2565b90600052602060002090601f0160209004810192826139215760008555613968565b82601f1061393a57805160ff1916838001178555613968565b82800160010185558215613968579182015b8281111561396757825182559160200191906001019061394c565b5b5090506139759190613a87565b5090565b8280548282559060005260206000209081019282156139b5579160200282015b828111156139b4578251825591602001919060010190613999565b5b5090506139c29190613a87565b5090565b60405180606001604052806060815260200160608152602001606081525090565b828054828255906000526020600020908101928215613a36579160200282015b82811115613a35578251829080519060200190613a259291906138f3565b5091602001919060010190613a07565b5b509050613a439190613aa4565b5090565b508054613a53906148c2565b6000825580601f10613a655750613a84565b601f016020900490600052602060002090810190613a839190613a87565b5b50565b5b80821115613aa0576000816000905550600101613a88565b5090565b5b80821115613ac45760008181613abb9190613a47565b50600101613aa5565b5090565b6000604051905090565b600080fd5b600080fd5b60007fffffffff0000000000000000000000000000000000000000000000000000000082169050919050565b613b1181613adc565b8114613b1c57600080fd5b50565b600081359050613b2e81613b08565b92915050565b600060208284031215613b4a57613b49613ad2565b5b6000613b5884828501613b1f565b91505092915050565b60008115159050919050565b613b7681613b61565b82525050565b6000602082019050613b916000830184613b6d565b92915050565b600081519050919050565b600082825260208201905092915050565b60005b83811015613bd1578082015181840152602081019050613bb6565b83811115613be0576000848401525b50505050565b6000601f19601f8301169050919050565b6000613c0282613b97565b613c0c8185613ba2565b9350613c1c818560208601613bb3565b613c2581613be6565b840191505092915050565b60006020820190508181036000830152613c4a8184613bf7565b905092915050565b6000819050919050565b613c6581613c52565b8114613c7057600080fd5b50565b600081359050613c8281613c5c565b92915050565b600060208284031215613c9e57613c9d613ad2565b5b6000613cac84828501613c73565b91505092915050565b600073ffffffffffffffffffffffffffffffffffffffff82169050919050565b6000613ce082613cb5565b9050919050565b613cf081613cd5565b82525050565b6000602082019050613d0b6000830184613ce7565b92915050565b613d1a81613cd5565b8114613d2557600080fd5b50565b600081359050613d3781613d11565b92915050565b60008060408385031215613d5457613d53613ad2565b5b6000613d6285828601613d28565b9250506020613d7385828601613c73565b9150509250929050565b600080fd5b600080fd5b7f4e487b7100000000000000000000000000000000000000000000000000000000600052604160045260246000fd5b613dbf82613be6565b810181811067ffffffffffffffff82111715613dde57613ddd613d87565b5b80604052505050565b6000613df1613ac8565b9050613dfd8282613db6565b919050565b600067ffffffffffffffff821115613e1d57613e1c613d87565b5b613e2682613be6565b9050602081019050919050565b82818337600083830152505050565b6000613e55613e5084613e02565b613de7565b905082815260208101848484011115613e7157613e70613d82565b5b613e7c848285613e33565b509392505050565b600082601f830112613e9957613e98613d7d565b5b8135613ea9848260208601613e42565b91505092915050565b600060208284031215613ec857613ec7613ad2565b5b600082013567ffffffffffffffff811115613ee657613ee5613ad7565b5b613ef284828501613e84565b91505092915050565b600081519050919050565b600082825260208201905092915050565b6000819050602082019050919050565b613f3081613c52565b82525050565b6000613f428383613f27565b60208301905092915050565b6000602082019050919050565b6000613f6682613efb565b613f708185613f06565b9350613f7b83613f17565b8060005b83811015613fac578151613f938882613f36565b9750613f9e83613f4e565b925050600181019050613f7f565b5085935050505092915050565b60006020820190508181036000830152613fd38184613f5b565b905092915050565b600060208284031215613ff157613ff0613ad2565b5b6000613fff84828501613d28565b91505092915050565b600081519050919050565b600082825260208201905092915050565b6000819050602082019050919050565b600082825260208201905092915050565b600061405082613b97565b61405a8185614034565b935061406a818560208601613bb3565b61407381613be6565b840191505092915050565b600061408a8383614045565b905092915050565b6000602082019050919050565b60006140aa82614008565b6140b48185614013565b9350836020820285016140c685614024565b8060005b8581101561410257848403895281516140e3858261407e565b94506140ee83614092565b925060208a019950506001810190506140ca565b50829750879550505050505092915050565b6000602082019050818103600083015261412e818461409f565b905092915050565b61413f81613c52565b82525050565b600060208201905061415a6000830184614136565b92915050565b60008060006060848603121561417957614178613ad2565b5b600061418786828701613d28565b935050602061419886828701613d28565b92505060406141a986828701613c73565b9150509250925092565b600067ffffffffffffffff8211156141ce576141cd613d87565b5b602082029050602081019050919050565b600080fd5b60006141f76141f2846141b3565b613de7565b9050808382526020820190506020840283018581111561421a576142196141df565b5b835b81811015614243578061422f8882613c73565b84526020840193505060208101905061421c565b5050509392505050565b600082601f83011261426257614261613d7d565b5b81356142728482602086016141e4565b91505092915050565b6000806040838503121561429257614291613ad2565b5b600083013567ffffffffffffffff8111156142b0576142af613ad7565b5b6142bc85828601613e84565b925050602083013567ffffffffffffffff8111156142dd576142dc613ad7565b5b6142e98582860161424d565b9150509250929050565b600067ffffffffffffffff82111561430e5761430d613d87565b5b602082029050602081019050919050565b600061433261432d846142f3565b613de7565b90508083825260208201905060208402830185811115614355576143546141df565b5b835b8181101561439c57803567ffffffffffffffff81111561437a57614379613d7d565b5b8086016143878982613e84565b85526020850194505050602081019050614357565b5050509392505050565b600082601f8301126143bb576143ba613d7d565b5b81356143cb84826020860161431f565b91505092915050565b6000806000606084860312156143ed576143ec613ad2565b5b600084013567ffffffffffffffff81111561440b5761440a613ad7565b5b61441786828701613e84565b935050602084013567ffffffffffffffff81111561443857614437613ad7565b5b614444868287016143a6565b925050604084013567ffffffffffffffff81111561446557614464613ad7565b5b614471868287016143a6565b9150509250925092565b61448481613b61565b811461448f57600080fd5b50565b6000813590506144a18161447b565b92915050565b600080604083850312156144be576144bd613ad2565b5b60006144cc85828601613d28565b92505060206144dd85828601614492565b9150509250929050565b600067ffffffffffffffff82111561450257614501613d87565b5b61450b82613be6565b9050602081019050919050565b600061452b614526846144e7565b613de7565b90508281526020810184848401111561454757614546613d82565b5b614552848285613e33565b509392505050565b600082601f83011261456f5761456e613d7d565b5b813561457f848260208601614518565b91505092915050565b600080600080608085870312156145a2576145a1613ad2565b5b60006145b087828801613d28565b94505060206145c187828801613d28565b93505060406145d287828801613c73565b925050606085013567ffffffffffffffff8111156145f3576145f2613ad7565b5b6145ff8782880161455a565b91505092959194509250565b600081519050919050565b600082825260208201905092915050565b6000819050602082019050919050565b600082825260208201905092915050565b600061465382614008565b61465d8185614637565b93508360208202850161466f85614024565b8060005b858110156146ab578484038952815161468c858261407e565b945061469783614092565b925060208a01995050600181019050614673565b50829750879550505050505092915050565b600060608301600083015184820360008601526146da8282614045565b915050602083015184820360208601526146f48282614648565b9150506040830151848203604086015261470e8282614648565b9150508091505092915050565b600061472783836146bd565b905092915050565b6000602082019050919050565b60006147478261460b565b6147518185614616565b93508360208202850161476385614627565b8060005b8581101561479f5784840389528151614780858261471b565b945061478b8361472f565b925060208a01995050600181019050614767565b50829750879550505050505092915050565b600060208201905081810360008301526147cb818461473c565b905092915050565b600060608301600083015184820360008601526147f08282614045565b9150506020830151848203602086015261480a8282614648565b915050604083015184820360408601526148248282614648565b9150508091505092915050565b6000602082019050818103600083015261484b81846147d3565b905092915050565b6000806040838503121561486a57614869613ad2565b5b600061487885828601613d28565b925050602061488985828601613d28565b9150509250929050565b7f4e487b7100000000000000000000000000000000000000000000000000000000600052602260045260246000fd5b600060028204905060018216806148da57607f821691505b602082108114156148ee576148ed614893565b5b50919050565b7f4552433732313a20617070726f76656420717565727920666f72206e6f6e657860008201527f697374656e7420746f6b656e0000000000000000000000000000000000000000602082015250565b6000614950602c83613ba2565b915061495b826148f4565b604082019050919050565b6000602082019050818103600083015261497f81614943565b9050919050565b7f4552433732313a20617070726f76616c20746f2063757272656e74206f776e6560008201527f7200000000000000000000000000000000000000000000000000000000000000602082015250565b60006149e2602183613ba2565b91506149ed82614986565b604082019050919050565b60006020820190508181036000830152614a11816149d5565b9050919050565b7f4552433732313a20617070726f76652063616c6c6572206973206e6f74206f7760008201527f6e6572206e6f7220617070726f76656420666f7220616c6c0000000000000000602082015250565b6000614a74603883613ba2565b9150614a7f82614a18565b604082019050919050565b60006020820190508181036000830152614aa381614a67565b9050919050565b7f4e487b7100000000000000000000000000000000000000000000000000000000600052603260045260246000fd5b600081905092915050565b6000614aef82613b97565b614af98185614ad9565b9350614b09818560208601613bb3565b80840191505092915050565b6000614b218284614ae4565b915081905092915050565b7f4e487b7100000000000000000000000000000000000000000000000000000000600052601160045260246000fd5b6000614b6682613c52565b91507fffffffffffffffffffffffffffffffffffffffffffffffffffffffffffffffff821415614b9957614b98614b2c565b5b600182019050919050565b7f76697369746f7220646f6573206e6f74206f776e20616e79204e667400000000600082015250565b6000614bda601c83613ba2565b9150614be582614ba4565b602082019050919050565b60006020820190508181036000830152614c0981614bcd565b9050919050565b7f4552433732313a207472616e736665722063616c6c6572206973206e6f74206f60008201527f776e6572206e6f7220617070726f766564000000000000000000000000000000602082015250565b6000614c6c603183613ba2565b9150614c7782614c10565b604082019050919050565b60006020820190508181036000830152614c9b81614c5f565b9050919050565b7f455243373231456e756d657261626c653a206f776e657220696e646578206f7560008201527f74206f6620626f756e6473000000000000000000000000000000000000000000602082015250565b6000614cfe602b83613ba2565b9150614d0982614ca2565b604082019050919050565b60006020820190508181036000830152614d2d81614cf1565b9050919050565b7f4f776e61626c653a2063616c6c6572206973206e6f7420746865206f776e6572600082015250565b6000614d6a602083613ba2565b9150614d7582614d34565b602082019050919050565b60006020820190508181036000830152614d9981614d5d565b9050919050565b7f4e487b7100000000000000000000000000000000000000000000000000000000600052601260045260246000fd5b6000614dda82613c52565b9150614de583613c52565b925082614df557614df4614da0565b5b828206905092915050565b6000614e0b82613c52565b9150614e1683613c52565b9250827fffffffffffffffffffffffffffffffffffffffffffffffffffffffffffffffff03821115614e4b57614e4a614b2c565b5b828201905092915050565b7f2e6a736f6e000000000000000000000000000000000000000000000000000000600082015250565b6000614e8c600583614ad9565b9150614e9782614e56565b600582019050919050565b6000614eae8285614ae4565b9150614eba8284614ae4565b9150614ec582614e7f565b91508190509392505050565b7f4552433732314275726e61626c653a2063616c6c6572206973206e6f74206f7760008201527f6e6572206e6f7220617070726f76656400000000000000000000000000000000602082015250565b6000614f2d603083613ba2565b9150614f3882614ed1565b604082019050919050565b60006020820190508181036000830152614f5c81614f20565b9050919050565b7f455243373231456e756d657261626c653a20676c6f62616c20696e646578206f60008201527f7574206f6620626f756e64730000000000000000000000000000000000000000602082015250565b6000614fbf602c83613ba2565b9150614fca82614f63565b604082019050919050565b60006020820190508181036000830152614fee81614fb2565b9050919050565b7f4552433732313a206f776e657220717565727920666f72206e6f6e657869737460008201527f656e7420746f6b656e0000000000000000000000000000000000000000000000602082015250565b6000615051602983613ba2565b915061505c82614ff5565b604082019050919050565b6000602082019050818103600083015261508081615044565b9050919050565b7f4552433732313a2062616c616e636520717565727920666f7220746865207a6560008201527f726f206164647265737300000000000000000000000000000000000000000000602082015250565b60006150e3602a83613ba2565b91506150ee82615087565b604082019050919050565b60006020820190508181036000830152615112816150d6565b9050919050565b7f73656e64657220646f6573206e6f74206f776e206e6674000000000000000000600082015250565b600061514f601783613ba2565b915061515a82615119565b602082019050919050565b6000602082019050818103600083015261517e81615142565b9050919050565b600061519082613c52565b915061519b83613c52565b9250826151ab576151aa614da0565b5b828204905092915050565b7f4f776e61626c653a206e6577206f776e657220697320746865207a65726f206160008201527f6464726573730000000000000000000000000000000000000000000000000000602082015250565b6000615212602683613ba2565b915061521d826151b6565b604082019050919050565b6000602082019050818103600083015261524181615205565b9050919050565b7f4552433732313a206f70657261746f7220717565727920666f72206e6f6e657860008201527f697374656e7420746f6b656e0000000000000000000000000000000000000000602082015250565b60006152a4602c83613ba2565b91506152af82615248565b604082019050919050565b600060208201905081810360008301526152d381615297565b9050919050565b7f4552433732313a207472616e736665722066726f6d20696e636f72726563742060008201527f6f776e6572000000000000000000000000000000000000000000000000000000602082015250565b6000615336602583613ba2565b9150615341826152da565b604082019050919050565b6000602082019050818103600083015261536581615329565b9050919050565b7f4552433732313a207472616e7366657220746f20746865207a65726f2061646460008201527f7265737300000000000000000000000000000000000000000000000000000000602082015250565b60006153c8602483613ba2565b91506153d38261536c565b604082019050919050565b600060208201905081810360008301526153f7816153bb565b9050919050565b600061540982613c52565b915061541483613c52565b92508282101561542757615426614b2c565b5b828203905092915050565b7f5061757361626c653a206e6f7420706175736564000000000000000000000000600082015250565b6000615468601483613ba2565b915061547382615432565b602082019050919050565b600060208201905081810360008301526154978161545b565b9050919050565b7f45524337323155524953746f726167653a2055524920736574206f66206e6f6e60008201527f6578697374656e7420746f6b656e000000000000000000000000000000000000602082015250565b60006154fa602e83613ba2565b91506155058261549e565b604082019050919050565b60006020820190508181036000830152615529816154ed565b9050919050565b7f5061757361626c653a2070617573656400000000000000000000000000000000600082015250565b6000615566601083613ba2565b915061557182615530565b602082019050919050565b6000602082019050818103600083015261559581615559565b9050919050565b7f4552433732313a20617070726f766520746f2063616c6c657200000000000000600082015250565b60006155d2601983613ba2565b91506155dd8261559c565b602082019050919050565b60006020820190508181036000830152615601816155c5565b9050919050565b7f4552433732313a207472616e7366657220746f206e6f6e20455243373231526560008201527f63656976657220696d706c656d656e7465720000000000000000000000000000602082015250565b6000615664603283613ba2565b915061566f82615608565b604082019050919050565b6000602082019050818103600083015261569381615657565b9050919050565b7f45524337323155524953746f726167653a2055524920717565727920666f722060008201527f6e6f6e6578697374656e7420746f6b656e000000000000000000000000000000602082015250565b60006156f6603183613ba2565b91506157018261569a565b604082019050919050565b60006020820190508181036000830152615725816156e9565b9050919050565b60006157388285614ae4565b91506157448284614ae4565b91508190509392505050565b600081519050919050565b600082825260208201905092915050565b600061577782615750565b615781818561575b565b9350615791818560208601613bb3565b61579a81613be6565b840191505092915050565b60006080820190506157ba6000830187613ce7565b6157c76020830186613ce7565b6157d46040830185614136565b81810360608301526157e6818461576c565b905095945050505050565b60008151905061580081613b08565b92915050565b60006020828403121561581c5761581b613ad2565b5b600061582a848285016157f1565b91505092915050565b7f4552433732314d657461646174613a2055524920717565727920666f72206e6f60008201527f6e6578697374656e7420746f6b656e0000000000000000000000000000000000602082015250565b600061588f602f83613ba2565b915061589a82615833565b604082019050919050565b600060208201905081810360008301526158be81615882565b9050919050565b7f4552433732313a206d696e7420746f20746865207a65726f2061646472657373600082015250565b60006158fb602083613ba2565b9150615906826158c5565b602082019050919050565b6000602082019050818103600083015261592a816158ee565b9050919050565b7f4552433732313a20746f6b656e20616c7265616479206d696e74656400000000600082015250565b6000615967601c83613ba2565b915061597282615931565b602082019050919050565b600060208201905081810360008301526159968161595a565b9050919050565b7f4e487b7100000000000000000000000000000000000000000000000000000000600052603160045260246000fdfe68747470733a2f2f676174657761792e70696e6174612e636c6f75642f697066732f516d5456367644533867445a676343357a364d41645575593241653151534e6367736b4546747745456235774b6d2fa2646970667358221220a4ee15353718ab6b0fa832d20803c3f414ad103493a45e9d9c715c7e435f3edf64736f6c634300080b0033",
  "immutableReferences": {},
  "source": "// SPDX-License-Identifier: MIT\npragma solidity ^0.8.4;\n\nimport \"@openzeppelin/contracts/token/ERC721/ERC721.sol\";\nimport \"@openzeppelin/contracts/token/ERC721/extensions/ERC721Enumerable.sol\";\nimport \"@openzeppelin/contracts/token/ERC721/extensions/ERC721URIStorage.sol\";\nimport \"@openzeppelin/contracts/security/Pausable.sol\";\nimport \"@openzeppelin/contracts/access/Ownable.sol\";\nimport \"@openzeppelin/contracts/token/ERC721/extensions/ERC721Burnable.sol\";\nimport \"@openzeppelin/contracts/utils/Counters.sol\";\nimport \"@openzeppelin/contracts/utils/Strings.sol\";\n\ncontract TokenGating is ERC721, ERC721Enumerable, ERC721URIStorage, Pausable, Ownable, ERC721Burnable {\n    using Counters for Counters.Counter;\n\n    Counters.Counter private _tokenIdCounter;\n    event collectionCreated(string indexed nameOfCollection);\n\n    constructor() ERC721(\"tokenGating\", \"gate\") { }\n\n    struct collection{\n        string collectionName;\n        uint256[] tokenIdListOfCollection;\n    }\n    collection[] public collections;\n\n    struct promo{\n        string promoName;\n        string[] eligibleCollections;\n        string[] earlyAccessCollections;\n    }\n\n    promo[] promos;\n\n//map tokenid to collection\nmapping(uint256 => string) tokenIdToCollectionmap;\n\n\n/*\n\ncollection A - tokenid 0, 1\ncollection B - tokenid 2, 3\ncollection C - tokenid 4, 5\ncollection D - tokenid 6, 7\n// createCollection(uint[] memory ids, string memory name) returns (uint256 indexOfCollection)\n//getcollection(string name) returns (uint[] memory)\n\n\npromo 1 -- eligible collection =A, earlyaccess=C\npromo 2 -- eligible collection =B, earlyaccess=D\n\ngetEligibleTokens(promo1, userOwnedTokenId){\npromo[] = gsteligiblePromos(userownedTokenId)\nforeach(promo[]){\n    uint256[]= tokenIdList(promo.earlyaccesscollection)\n}\n}\n\n//getallEAtokens(address) returns (int[] memory)returns(uint[] memory){\n    promo[] EApromos= getAllEligiblePromos(address);\n   uint256[] EATokenIds = getAllEATokenIds(promo[] );\n   return EATokenIds; \n}\n\nback                           front\n                                address\nstring[] collectionsOwned       \npromo[] promos                  \n                                compile eligible promos\n                                compile eligibleEAcollection\ngetCollection               \n                                append the int[] to get EAtokenIds\n\n\n\n */\n\nfunction createCollection(string memory _name, uint256[] memory _ids) public returns(uint256){\n    collection memory newCollection;\n    newCollection.collectionName= _name;\n    newCollection.tokenIdListOfCollection= _ids;\n    //map ids to collection\n    uint256 len = _ids.length;\n    for(uint256 i=0;i<len;i++){\n        tokenIdToCollectionmap[_ids[i]]= _name;\n    }\n\n    collections.push(newCollection);\n    emit collectionCreated(_name);\n    return collections.length;\n}\n\nfunction getCollection(string memory _name)view public returns (uint256[] memory){\n    uint256 len = collections.length;\n    for(uint256 i=0;i<len;i++){\n        string memory colName = collections[i].collectionName ;\n        if(keccak256(abi.encodePacked(colName)) == keccak256(abi.encodePacked(_name))){\n            return collections[i].tokenIdListOfCollection;\n        }\n    }\n    uint256[] memory nullRet;\n    return nullRet;\n    \n}\n\nfunction getCollectionSize(string memory _name)view public returns(uint256){\n    uint256 len = collections.length;\n    for(uint256 i=0;i<len;i++){\n        string memory colName = collections[i].collectionName ;\n        if(keccak256(abi.encodePacked(colName)) == keccak256(abi.encodePacked(_name))){\n            return collections[i].tokenIdListOfCollection.length;\n        }\n    }\n    return 0;\n}\n\nfunction createPromo(string memory _name, string[] memory _eligibleColl, string[] memory _earlyAccessColl) public returns(uint256 ){\n    promo memory newPromo;\n    newPromo.promoName = _name;\n    newPromo.eligibleCollections =_eligibleColl;\n    newPromo.earlyAccessCollections = _earlyAccessColl;\n    promos.push(newPromo);\n    return promos.length;\n}\n\nfunction getPromo(string memory _name) public view returns(promo memory){\n    uint256 len = promos.length;\n    for(uint256 i=0; i<len;i++){\n        promo memory selectedPromo = promos[i];\n        if(keccak256(abi.encodePacked(_name)) == keccak256(abi.encodePacked(selectedPromo.promoName))){\n            return selectedPromo;\n        }\n    }\n}\n\nfunction getOwnedCollection(address _visitor) public view returns(string[] memory){\n    uint256 _bal = balanceOf(_visitor);\n    require(_bal > 0 ,\"visitor does not own any Nft\");\n    string[] memory listOfCollections = new string[](_bal);\n    for(uint256 i=0; i<_bal;i++){\n        uint256 _tId = tokenOfOwnerByIndex(_visitor,i);\n        listOfCollections[i] = tokenIdToCollectionmap[_tId];\n    }\n    return listOfCollections;\n}\n\nfunction getAllPromos() public view returns(promo[] memory allprom){\n    promo[] memory  allprom= promos;\n    return allprom;\n}\n\n// function getAlltokensOfCollectionArray(string[] memory _EACollections)view public returns(uint256[] memory _EATokenIds){\n//     //no of collections\n//     uint256 colLen = _EACollections.length;\n//     uint256 tIdLen;\n//     //no of tokenids in collections and create memory array\n//     for(uint256 i=0;i<colLen;i++){\n//         tIdLen += getCollectionSize(_EACollections[i]);        \n//     }\n//     //append all tokenids and return\n//     uint256[] memory _EATokenIds = new uint256[](tIdLen);\n//     for(uint256 i=0;i<colLen;i++){\n//         uint[]  memory currList = getCollection(_EACollections[i]); \n//         uint256 aas =getCollectionSize(_EACollections[i]);\n//         for(uint256)\n\n//     }\n\n// }\n\n\n\n function fetchEligible(address _visitor) public view returns(uint256[] memory){\n     require(balanceOf(_visitor)>0,\"sender does not own nft\");\n     uint256 _tId=tokenOfOwnerByIndex(_visitor, 0); //6\n     address _ownr= owner();\n     uint256 _promoSupply=balanceOf(_ownr);//6\n     bool isOdd = false;\n      uint[] memory idList= new uint256[](_promoSupply/2);\n      if((_tId+1)%2 != 0) isOdd = true;\n    if(isOdd){\n         uint256 _cntr=0;\n         for(uint256 i=1; i<_promoSupply;i=i+2){\n             idList[_cntr]=(tokenOfOwnerByIndex(_ownr, i));\n             _cntr++;\n        }\n      }else{\n         uint256 _cntr=0;\n         for(uint256 i=0; i<_promoSupply;i=i+2){\n             idList[_cntr]=(tokenOfOwnerByIndex(_ownr, i));\n             _cntr++;\n         }       \n    }\n     return idList;\n }\n\n//create collection object having ids of nfts in that collection\n// create promo object having {eligible collections, earlyaccess collections}\n//fetch eligible promos\n//fetch early access nfts from eligible collections\n\n\n\n\n\n\n\n    function _baseURI() internal pure override returns (string memory) {\n        return \"https://gateway.pinata.cloud/ipfs/QmTV6vDS8gDZgcC5z6MAdUuY2Ae1QSNcgskEFtwEEb5wKm/\";\n    }\n\n    function pause() public onlyOwner {\n        _pause();\n    }\n\n    function unpause() public onlyOwner {\n        _unpause();\n    }\n\n    function safeMint(address to) public onlyOwner {\n        uint256 tokenId = _tokenIdCounter.current();\n        uint256 metaId= (tokenId %9)+1;\n        _tokenIdCounter.increment();\n        _safeMint(to, tokenId);\n\n        string memory tokenadd= string(abi.encodePacked(_baseURI(),Strings.toString(metaId),\".json\"));\n        _setTokenURI(tokenId, tokenadd);\n    }\n\n    function _beforeTokenTransfer(address from, address to, uint256 tokenId)\n        internal\n        whenNotPaused\n        override(ERC721, ERC721Enumerable)\n    {\n        super._beforeTokenTransfer(from, to, tokenId);\n    }\n\n    // The following functions are overrides required by Solidity.\n\n    function _burn(uint256 tokenId) internal override(ERC721, ERC721URIStorage) {\n        super._burn(tokenId);\n    }\n\n    function tokenURI(uint256 tokenId)\n        public\n        view\n        override(ERC721, ERC721URIStorage)\n        returns (string memory)\n    {\n        return super.tokenURI(tokenId);\n    }\n\n    function supportsInterface(bytes4 interfaceId)\n        public\n        view\n        override(ERC721, ERC721Enumerable)\n        returns (bool)\n    {\n        return super.supportsInterface(interfaceId);\n    }\n}\n",
  "sourcePath": "/home/falcon46/Documents/projects/TokenGating/nftTokenGating/contracts/TokenGating.sol",
  "compiler": {
    "name": "solc",
    "version": "0.8.11+commit.d7f03943.Emscripten.clang"
  },
  "schemaVersion": "3.4.4",
  "updatedAt": "2022-03-02T09:40:09.427Z",
  "networkType": "ethereum",
  "devdoc": {
    "kind": "dev",
    "methods": {
      "approve(address,uint256)": {
        "details": "See {IERC721-approve}."
      },
      "balanceOf(address)": {
        "details": "See {IERC721-balanceOf}."
      },
      "burn(uint256)": {
        "details": "Burns `tokenId`. See {ERC721-_burn}. Requirements: - The caller must own `tokenId` or be an approved operator."
      },
      "getApproved(uint256)": {
        "details": "See {IERC721-getApproved}."
      },
      "isApprovedForAll(address,address)": {
        "details": "See {IERC721-isApprovedForAll}."
      },
      "name()": {
        "details": "See {IERC721Metadata-name}."
      },
      "owner()": {
        "details": "Returns the address of the current owner."
      },
      "ownerOf(uint256)": {
        "details": "See {IERC721-ownerOf}."
      },
      "paused()": {
        "details": "Returns true if the contract is paused, and false otherwise."
      },
      "renounceOwnership()": {
        "details": "Leaves the contract without owner. It will not be possible to call `onlyOwner` functions anymore. Can only be called by the current owner. NOTE: Renouncing ownership will leave the contract without an owner, thereby removing any functionality that is only available to the owner."
      },
      "safeTransferFrom(address,address,uint256)": {
        "details": "See {IERC721-safeTransferFrom}."
      },
      "safeTransferFrom(address,address,uint256,bytes)": {
        "details": "See {IERC721-safeTransferFrom}."
      },
      "setApprovalForAll(address,bool)": {
        "details": "See {IERC721-setApprovalForAll}."
      },
      "symbol()": {
        "details": "See {IERC721Metadata-symbol}."
      },
      "tokenByIndex(uint256)": {
        "details": "See {IERC721Enumerable-tokenByIndex}."
      },
      "tokenOfOwnerByIndex(address,uint256)": {
        "details": "See {IERC721Enumerable-tokenOfOwnerByIndex}."
      },
      "totalSupply()": {
        "details": "See {IERC721Enumerable-totalSupply}."
      },
      "transferFrom(address,address,uint256)": {
        "details": "See {IERC721-transferFrom}."
      },
      "transferOwnership(address)": {
        "details": "Transfers ownership of the contract to a new account (`newOwner`). Can only be called by the current owner."
      }
    },
    "version": 1
  },
  "userdoc": {
    "kind": "user",
    "methods": {},
    "version": 1
  }
}