{
  "contractName": "TokenGating",
  "abi": [
    {
      "inputs": [],
      "stateMutability": "nonpayable",
      "type": "constructor"
    },
    {
      "anonymous": false,
      "inputs": [
        {
          "indexed": true,
          "internalType": "address",
          "name": "owner",
          "type": "address"
        },
        {
          "indexed": true,
          "internalType": "address",
          "name": "approved",
          "type": "address"
        },
        {
          "indexed": true,
          "internalType": "uint256",
          "name": "tokenId",
          "type": "uint256"
        }
      ],
      "name": "Approval",
      "type": "event"
    },
    {
      "anonymous": false,
      "inputs": [
        {
          "indexed": true,
          "internalType": "address",
          "name": "owner",
          "type": "address"
        },
        {
          "indexed": true,
          "internalType": "address",
          "name": "operator",
          "type": "address"
        },
        {
          "indexed": false,
          "internalType": "bool",
          "name": "approved",
          "type": "bool"
        }
      ],
      "name": "ApprovalForAll",
      "type": "event"
    },
    {
      "anonymous": false,
      "inputs": [
        {
          "indexed": true,
          "internalType": "address",
          "name": "previousOwner",
          "type": "address"
        },
        {
          "indexed": true,
          "internalType": "address",
          "name": "newOwner",
          "type": "address"
        }
      ],
      "name": "OwnershipTransferred",
      "type": "event"
    },
    {
      "anonymous": false,
      "inputs": [
        {
          "indexed": false,
          "internalType": "address",
          "name": "account",
          "type": "address"
        }
      ],
      "name": "Paused",
      "type": "event"
    },
    {
      "anonymous": false,
      "inputs": [
        {
          "indexed": true,
          "internalType": "address",
          "name": "from",
          "type": "address"
        },
        {
          "indexed": true,
          "internalType": "address",
          "name": "to",
          "type": "address"
        },
        {
          "indexed": true,
          "internalType": "uint256",
          "name": "tokenId",
          "type": "uint256"
        }
      ],
      "name": "Transfer",
      "type": "event"
    },
    {
      "anonymous": false,
      "inputs": [
        {
          "indexed": false,
          "internalType": "address",
          "name": "account",
          "type": "address"
        }
      ],
      "name": "Unpaused",
      "type": "event"
    },
    {
      "anonymous": false,
      "inputs": [
        {
          "indexed": true,
          "internalType": "string",
          "name": "nameOfCollection",
          "type": "string"
        }
      ],
      "name": "collectionCreated",
      "type": "event"
    },
    {
      "inputs": [
        {
          "internalType": "address",
          "name": "to",
          "type": "address"
        },
        {
          "internalType": "uint256",
          "name": "tokenId",
          "type": "uint256"
        }
      ],
      "name": "approve",
      "outputs": [],
      "stateMutability": "nonpayable",
      "type": "function"
    },
    {
      "inputs": [
        {
          "internalType": "address",
          "name": "owner",
          "type": "address"
        }
      ],
      "name": "balanceOf",
      "outputs": [
        {
          "internalType": "uint256",
          "name": "",
          "type": "uint256"
        }
      ],
      "stateMutability": "view",
      "type": "function",
      "constant": true
    },
    {
      "inputs": [
        {
          "internalType": "uint256",
          "name": "tokenId",
          "type": "uint256"
        }
      ],
      "name": "burn",
      "outputs": [],
      "stateMutability": "nonpayable",
      "type": "function"
    },
    {
      "inputs": [
        {
          "internalType": "uint256",
          "name": "",
          "type": "uint256"
        }
      ],
      "name": "collections",
      "outputs": [
        {
          "internalType": "string",
          "name": "collectionName",
          "type": "string"
        }
      ],
      "stateMutability": "view",
      "type": "function",
      "constant": true
    },
    {
      "inputs": [
        {
          "internalType": "uint256",
          "name": "tokenId",
          "type": "uint256"
        }
      ],
      "name": "getApproved",
      "outputs": [
        {
          "internalType": "address",
          "name": "",
          "type": "address"
        }
      ],
      "stateMutability": "view",
      "type": "function",
      "constant": true
    },
    {
      "inputs": [
        {
          "internalType": "address",
          "name": "owner",
          "type": "address"
        },
        {
          "internalType": "address",
          "name": "operator",
          "type": "address"
        }
      ],
      "name": "isApprovedForAll",
      "outputs": [
        {
          "internalType": "bool",
          "name": "",
          "type": "bool"
        }
      ],
      "stateMutability": "view",
      "type": "function",
      "constant": true
    },
    {
      "inputs": [],
      "name": "name",
      "outputs": [
        {
          "internalType": "string",
          "name": "",
          "type": "string"
        }
      ],
      "stateMutability": "view",
      "type": "function",
      "constant": true
    },
    {
      "inputs": [],
      "name": "owner",
      "outputs": [
        {
          "internalType": "address",
          "name": "",
          "type": "address"
        }
      ],
      "stateMutability": "view",
      "type": "function",
      "constant": true
    },
    {
      "inputs": [
        {
          "internalType": "uint256",
          "name": "tokenId",
          "type": "uint256"
        }
      ],
      "name": "ownerOf",
      "outputs": [
        {
          "internalType": "address",
          "name": "",
          "type": "address"
        }
      ],
      "stateMutability": "view",
      "type": "function",
      "constant": true
    },
    {
      "inputs": [],
      "name": "paused",
      "outputs": [
        {
          "internalType": "bool",
          "name": "",
          "type": "bool"
        }
      ],
      "stateMutability": "view",
      "type": "function",
      "constant": true
    },
    {
      "inputs": [],
      "name": "renounceOwnership",
      "outputs": [],
      "stateMutability": "nonpayable",
      "type": "function"
    },
    {
      "inputs": [
        {
          "internalType": "address",
          "name": "from",
          "type": "address"
        },
        {
          "internalType": "address",
          "name": "to",
          "type": "address"
        },
        {
          "internalType": "uint256",
          "name": "tokenId",
          "type": "uint256"
        }
      ],
      "name": "safeTransferFrom",
      "outputs": [],
      "stateMutability": "nonpayable",
      "type": "function"
    },
    {
      "inputs": [
        {
          "internalType": "address",
          "name": "from",
          "type": "address"
        },
        {
          "internalType": "address",
          "name": "to",
          "type": "address"
        },
        {
          "internalType": "uint256",
          "name": "tokenId",
          "type": "uint256"
        },
        {
          "internalType": "bytes",
          "name": "_data",
          "type": "bytes"
        }
      ],
      "name": "safeTransferFrom",
      "outputs": [],
      "stateMutability": "nonpayable",
      "type": "function"
    },
    {
      "inputs": [
        {
          "internalType": "address",
          "name": "operator",
          "type": "address"
        },
        {
          "internalType": "bool",
          "name": "approved",
          "type": "bool"
        }
      ],
      "name": "setApprovalForAll",
      "outputs": [],
      "stateMutability": "nonpayable",
      "type": "function"
    },
    {
      "inputs": [],
      "name": "symbol",
      "outputs": [
        {
          "internalType": "string",
          "name": "",
          "type": "string"
        }
      ],
      "stateMutability": "view",
      "type": "function",
      "constant": true
    },
    {
      "inputs": [
        {
          "internalType": "uint256",
          "name": "index",
          "type": "uint256"
        }
      ],
      "name": "tokenByIndex",
      "outputs": [
        {
          "internalType": "uint256",
          "name": "",
          "type": "uint256"
        }
      ],
      "stateMutability": "view",
      "type": "function",
      "constant": true
    },
    {
      "inputs": [
        {
          "internalType": "address",
          "name": "owner",
          "type": "address"
        },
        {
          "internalType": "uint256",
          "name": "index",
          "type": "uint256"
        }
      ],
      "name": "tokenOfOwnerByIndex",
      "outputs": [
        {
          "internalType": "uint256",
          "name": "",
          "type": "uint256"
        }
      ],
      "stateMutability": "view",
      "type": "function",
      "constant": true
    },
    {
      "inputs": [],
      "name": "totalSupply",
      "outputs": [
        {
          "internalType": "uint256",
          "name": "",
          "type": "uint256"
        }
      ],
      "stateMutability": "view",
      "type": "function",
      "constant": true
    },
    {
      "inputs": [
        {
          "internalType": "address",
          "name": "from",
          "type": "address"
        },
        {
          "internalType": "address",
          "name": "to",
          "type": "address"
        },
        {
          "internalType": "uint256",
          "name": "tokenId",
          "type": "uint256"
        }
      ],
      "name": "transferFrom",
      "outputs": [],
      "stateMutability": "nonpayable",
      "type": "function"
    },
    {
      "inputs": [
        {
          "internalType": "address",
          "name": "newOwner",
          "type": "address"
        }
      ],
      "name": "transferOwnership",
      "outputs": [],
      "stateMutability": "nonpayable",
      "type": "function"
    },
    {
      "inputs": [
        {
          "internalType": "string",
          "name": "_name",
          "type": "string"
        },
        {
          "internalType": "uint256[]",
          "name": "_ids",
          "type": "uint256[]"
        }
      ],
      "name": "createCollection",
      "outputs": [
        {
          "internalType": "uint256",
          "name": "",
          "type": "uint256"
        }
      ],
      "stateMutability": "nonpayable",
      "type": "function"
    },
    {
      "inputs": [
        {
          "internalType": "string",
          "name": "_name",
          "type": "string"
        }
      ],
      "name": "getCollection",
      "outputs": [
        {
          "internalType": "uint256[]",
          "name": "",
          "type": "uint256[]"
        }
      ],
      "stateMutability": "view",
      "type": "function",
      "constant": true
    },
    {
      "inputs": [
        {
          "internalType": "string",
          "name": "_name",
          "type": "string"
        }
      ],
      "name": "getCollectionSize",
      "outputs": [
        {
          "internalType": "uint256",
          "name": "",
          "type": "uint256"
        }
      ],
      "stateMutability": "view",
      "type": "function",
      "constant": true
    },
    {
      "inputs": [
        {
          "internalType": "string",
          "name": "_name",
          "type": "string"
        },
        {
          "internalType": "string[]",
          "name": "_eligibleColl",
          "type": "string[]"
        },
        {
          "internalType": "string[]",
          "name": "_earlyAccessColl",
          "type": "string[]"
        }
      ],
      "name": "createPromo",
      "outputs": [
        {
          "internalType": "uint256",
          "name": "",
          "type": "uint256"
        }
      ],
      "stateMutability": "nonpayable",
      "type": "function"
    },
    {
      "inputs": [
        {
          "internalType": "string",
          "name": "_name",
          "type": "string"
        }
      ],
      "name": "getPromo",
      "outputs": [
        {
          "components": [
            {
              "internalType": "string",
              "name": "promoName",
              "type": "string"
            },
            {
              "internalType": "string[]",
              "name": "eligibleCollections",
              "type": "string[]"
            },
            {
              "internalType": "string[]",
              "name": "earlyAccessCollections",
              "type": "string[]"
            }
          ],
          "internalType": "struct TokenGating.promo",
          "name": "",
          "type": "tuple"
        }
      ],
      "stateMutability": "view",
      "type": "function",
      "constant": true
    },
    {
      "inputs": [
        {
          "internalType": "address",
          "name": "_visitor",
          "type": "address"
        }
      ],
      "name": "getOwnedCollection",
      "outputs": [
        {
          "internalType": "string[]",
          "name": "",
          "type": "string[]"
        }
      ],
      "stateMutability": "view",
      "type": "function",
      "constant": true
    },
    {
      "inputs": [],
      "name": "getAllPromos",
      "outputs": [
        {
          "components": [
            {
              "internalType": "string",
              "name": "promoName",
              "type": "string"
            },
            {
              "internalType": "string[]",
              "name": "eligibleCollections",
              "type": "string[]"
            },
            {
              "internalType": "string[]",
              "name": "earlyAccessCollections",
              "type": "string[]"
            }
          ],
          "internalType": "struct TokenGating.promo[]",
          "name": "allprom",
          "type": "tuple[]"
        }
      ],
      "stateMutability": "view",
      "type": "function",
      "constant": true
    },
    {
      "inputs": [
        {
          "internalType": "address",
          "name": "_visitor",
          "type": "address"
        }
      ],
      "name": "fetchEligible",
      "outputs": [
        {
          "internalType": "uint256[]",
          "name": "",
          "type": "uint256[]"
        }
      ],
      "stateMutability": "view",
      "type": "function",
      "constant": true
    },
    {
      "inputs": [],
      "name": "pause",
      "outputs": [],
      "stateMutability": "nonpayable",
      "type": "function"
    },
    {
      "inputs": [],
      "name": "unpause",
      "outputs": [],
      "stateMutability": "nonpayable",
      "type": "function"
    },
    {
      "inputs": [
        {
          "internalType": "address",
          "name": "to",
          "type": "address"
        }
      ],
      "name": "safeMint",
      "outputs": [],
      "stateMutability": "nonpayable",
      "type": "function"
    },
    {
      "inputs": [
        {
          "internalType": "uint256",
          "name": "tokenId",
          "type": "uint256"
        }
      ],
      "name": "tokenURI",
      "outputs": [
        {
          "internalType": "string",
          "name": "",
          "type": "string"
        }
      ],
      "stateMutability": "view",
      "type": "function",
      "constant": true
    },
    {
      "inputs": [
        {
          "internalType": "bytes4",
          "name": "interfaceId",
          "type": "bytes4"
        }
      ],
      "name": "supportsInterface",
      "outputs": [
        {
          "internalType": "bool",
          "name": "",
          "type": "bool"
        }
      ],
      "stateMutability": "view",
      "type": "function",
      "constant": true
    }
  ],
  "bytecode": "0x60806040523480156200001157600080fd5b506040518060400160405280600b81526020017f746f6b656e476174696e670000000000000000000000000000000000000000008152506040518060400160405280600481526020017f6761746500000000000000000000000000000000000000000000000000000000815250816000908051906020019062000096929190620001c1565b508060019080519060200190620000af929190620001c1565b5050506000600b60006101000a81548160ff021916908315150217905550620000ed620000e1620000f360201b60201c565b620000fb60201b60201c565b620002d6565b600033905090565b6000600b60019054906101000a900473ffffffffffffffffffffffffffffffffffffffff16905081600b60016101000a81548173ffffffffffffffffffffffffffffffffffffffff021916908373ffffffffffffffffffffffffffffffffffffffff1602179055508173ffffffffffffffffffffffffffffffffffffffff168173ffffffffffffffffffffffffffffffffffffffff167f8be0079c531659141344cd1fd0a4f28419497f9722a3daafe3b4186f6b6457e060405160405180910390a35050565b828054620001cf90620002a0565b90600052602060002090601f016020900481019282620001f357600085556200023f565b82601f106200020e57805160ff19168380011785556200023f565b828001600101855582156200023f579182015b828111156200023e57825182559160200191906001019062000221565b5b5090506200024e919062000252565b5090565b5b808211156200026d57600081600090555060010162000253565b5090565b7f4e487b7100000000000000000000000000000000000000000000000000000000600052602260045260246000fd5b60006002820490506001821680620002b957607f821691505b60208210811415620002d057620002cf62000271565b5b50919050565b615a3d80620002e66000396000f3fe608060405234801561001057600080fd5b50600436106101fb5760003560e01c80636352211e1161011a578063a22cb465116100ad578063dba35e381161007c578063dba35e38146105d6578063e985e9c514610606578063ecaf7ee914610636578063f2fde38b14610666578063fdbda0ec14610682576101fb565b8063a22cb46514610550578063b88d4fde1461056c578063c87b56dd14610588578063ce718a3f146105b8576101fb565b80637ac46764116100e95780637ac46764146104da5780638456cb591461050a5780638da5cb5b1461051457806395d89b4114610532576101fb565b80636352211e1461044057806370a0823114610470578063715018a6146104a057806371b8621b146104aa576101fb565b80632b22a5091161019257806342842e0e1161016157806342842e0e146103ba57806342966c68146103d65780634f6ccce7146103f25780635c975abb14610422576101fb565b80632b22a509146103345780632f745c59146103645780633f4ba83a1461039457806340d097c31461039e576101fb565b80630ff79b33116101ce5780630ff79b331461029a5780631715c54f146102ca57806318160ddd146102fa57806323b872dd14610318576101fb565b806301ffc9a71461020057806306fdde0314610230578063081812fc1461024e578063095ea7b31461027e575b600080fd5b61021a60048036038101906102159190613b2b565b6106b2565b6040516102279190613b73565b60405180910390f35b6102386106c4565b6040516102459190613c27565b60405180910390f35b61026860048036038101906102639190613c7f565b610756565b6040516102759190613ced565b60405180910390f35b61029860048036038101906102939190613d34565b6107db565b005b6102b460048036038101906102af9190613ea9565b6108f3565b6040516102c19190613fb0565b60405180910390f35b6102e460048036038101906102df9190613fd2565b610ab0565b6040516102f1919061410b565b60405180910390f35b610302610c46565b60405161030f919061413c565b60405180910390f35b610332600480360381019061032d9190614157565b610c53565b005b61034e60048036038101906103499190614272565b610cb3565b60405161035b919061413c565b60405180910390f35b61037e60048036038101906103799190613d34565b610df0565b60405161038b919061413c565b60405180910390f35b61039c610e95565b005b6103b860048036038101906103b39190613fd2565b610f1b565b005b6103d460048036038101906103cf9190614157565b611012565b005b6103f060048036038101906103eb9190613c7f565b611032565b005b61040c60048036038101906104079190613c7f565b61108e565b604051610419919061413c565b60405180910390f35b61042a6110ff565b6040516104379190613b73565b60405180910390f35b61045a60048036038101906104559190613c7f565b611116565b6040516104679190613ced565b60405180910390f35b61048a60048036038101906104859190613fd2565b6111c8565b604051610497919061413c565b60405180910390f35b6104a8611280565b005b6104c460048036038101906104bf91906143cb565b611308565b6040516104d1919061413c565b60405180910390f35b6104f460048036038101906104ef9190613ea9565b6113c2565b604051610501919061413c565b60405180910390f35b610512611531565b005b61051c6115b7565b6040516105299190613ced565b60405180910390f35b61053a6115e1565b6040516105479190613c27565b60405180910390f35b61056a6004803603810190610565919061449e565b611673565b005b6105866004803603810190610581919061457f565b611689565b005b6105a2600480360381019061059d9190613c7f565b6116eb565b6040516105af9190613c27565b60405180910390f35b6105c06116fd565b6040516105cd91906147a8565b60405180910390f35b6105f060048036038101906105eb9190613ea9565b6119a6565b6040516105fd9190614828565b60405180910390f35b610620600480360381019061061b919061484a565b611cb7565b60405161062d9190613b73565b60405180910390f35b610650600480360381019061064b9190613fd2565b611d4b565b60405161065d9190613fb0565b60405180910390f35b610680600480360381019061067b9190613fd2565b611f0e565b005b61069c60048036038101906106979190613c7f565b612006565b6040516106a99190613c27565b60405180910390f35b60006106bd826120bc565b9050919050565b6060600080546106d3906148b9565b80601f01602080910402602001604051908101604052809291908181526020018280546106ff906148b9565b801561074c5780601f106107215761010080835404028352916020019161074c565b820191906000526020600020905b81548152906001019060200180831161072f57829003601f168201915b5050505050905090565b600061076182612136565b6107a0576040517f08c379a00000000000000000000000000000000000000000000000000000000081526004016107979061495d565b60405180910390fd5b6004600083815260200190815260200160002060009054906101000a900473ffffffffffffffffffffffffffffffffffffffff169050919050565b60006107e682611116565b90508073ffffffffffffffffffffffffffffffffffffffff168373ffffffffffffffffffffffffffffffffffffffff161415610857576040517f08c379a000000000000000000000000000000000000000000000000000000000815260040161084e906149ef565b60405180910390fd5b8073ffffffffffffffffffffffffffffffffffffffff166108766121a2565b73ffffffffffffffffffffffffffffffffffffffff1614806108a557506108a48161089f6121a2565b611cb7565b5b6108e4576040517f08c379a00000000000000000000000000000000000000000000000000000000081526004016108db90614a81565b60405180910390fd5b6108ee83836121aa565b505050565b60606000600d80549050905060005b81811015610aa2576000600d82815481106109205761091f614aa1565b5b9060005260206000209060020201600001805461093c906148b9565b80601f0160208091040260200160405190810160405280929190818152602001828054610968906148b9565b80156109b55780601f1061098a576101008083540402835291602001916109b5565b820191906000526020600020905b81548152906001019060200180831161099857829003601f168201915b50505050509050846040516020016109cd9190614b0c565b60405160208183030381529060405280519060200120816040516020016109f49190614b0c565b604051602081830303815290604052805190602001201415610a8e57600d8281548110610a2457610a23614aa1565b5b9060005260206000209060020201600101805480602002602001604051908101604052809291908181526020018280548015610a7f57602002820191906000526020600020905b815481526020019060010190808311610a6b575b50505050509350505050610aab565b508080610a9a90614b52565b915050610902565b50606080925050505b919050565b60606000610abd836111c8565b905060008111610b02576040517f08c379a0000000000000000000000000000000000000000000000000000000008152600401610af990614be7565b60405180910390fd5b60008167ffffffffffffffff811115610b1e57610b1d613d7e565b5b604051908082528060200260200182016040528015610b5157816020015b6060815260200190600190039081610b3c5790505b50905060005b82811015610c3b576000610b6b8683610df0565b9050600f60008281526020019081526020016000208054610b8b906148b9565b80601f0160208091040260200160405190810160405280929190818152602001828054610bb7906148b9565b8015610c045780601f10610bd957610100808354040283529160200191610c04565b820191906000526020600020905b815481529060010190602001808311610be757829003601f168201915b5050505050838381518110610c1c57610c1b614aa1565b5b6020026020010181905250508080610c3390614b52565b915050610b57565b508092505050919050565b6000600880549050905090565b610c64610c5e6121a2565b82612263565b610ca3576040517f08c379a0000000000000000000000000000000000000000000000000000000008152600401610c9a90614c79565b60405180910390fd5b610cae838383612341565b505050565b6000610cbd6138d0565b83816000018190525082816020018190525060008351905060005b81811015610d355785600f6000878481518110610cf857610cf7614aa1565b5b602002602001015181526020019081526020016000209080519060200190610d219291906138ea565b508080610d2d90614b52565b915050610cd8565b50600d8290806001815401808255809150506001900390600052602060002090600202016000909190919091506000820151816000019080519060200190610d7e9291906138ea565b506020820151816001019080519060200190610d9b929190613970565b50505084604051610dac9190614b0c565b60405180910390207fab094daecd1bb06bcedf763ff46638aee745228dca13a4ff74930c66dd144d5960405160405180910390a2600d805490509250505092915050565b6000610dfb836111c8565b8210610e3c576040517f08c379a0000000000000000000000000000000000000000000000000000000008152600401610e3390614d0b565b60405180910390fd5b600660008473ffffffffffffffffffffffffffffffffffffffff1673ffffffffffffffffffffffffffffffffffffffff168152602001908152602001600020600083815260200190815260200160002054905092915050565b610e9d6121a2565b73ffffffffffffffffffffffffffffffffffffffff16610ebb6115b7565b73ffffffffffffffffffffffffffffffffffffffff1614610f11576040517f08c379a0000000000000000000000000000000000000000000000000000000008152600401610f0890614d77565b60405180910390fd5b610f196125a8565b565b610f236121a2565b73ffffffffffffffffffffffffffffffffffffffff16610f416115b7565b73ffffffffffffffffffffffffffffffffffffffff1614610f97576040517f08c379a0000000000000000000000000000000000000000000000000000000008152600401610f8e90614d77565b60405180910390fd5b6000610fa3600c61264a565b905060006001600983610fb69190614dc6565b610fc09190614df7565b9050610fcc600c612658565b610fd6838361266e565b6000610fe18261268c565b604051602001610ff19190614e99565b604051602081830303815290604052905061100c83826127ed565b50505050565b61102d83838360405180602001604052806000815250611689565b505050565b61104361103d6121a2565b82612263565b611082576040517f08c379a000000000000000000000000000000000000000000000000000000000815260040161107990614f2d565b60405180910390fd5b61108b81612861565b50565b6000611098610c46565b82106110d9576040517f08c379a00000000000000000000000000000000000000000000000000000000081526004016110d090614fbf565b60405180910390fd5b600882815481106110ed576110ec614aa1565b5b90600052602060002001549050919050565b6000600b60009054906101000a900460ff16905090565b6000806002600084815260200190815260200160002060009054906101000a900473ffffffffffffffffffffffffffffffffffffffff169050600073ffffffffffffffffffffffffffffffffffffffff168173ffffffffffffffffffffffffffffffffffffffff1614156111bf576040517f08c379a00000000000000000000000000000000000000000000000000000000081526004016111b690615051565b60405180910390fd5b80915050919050565b60008073ffffffffffffffffffffffffffffffffffffffff168273ffffffffffffffffffffffffffffffffffffffff161415611239576040517f08c379a0000000000000000000000000000000000000000000000000000000008152600401611230906150e3565b60405180910390fd5b600360008373ffffffffffffffffffffffffffffffffffffffff1673ffffffffffffffffffffffffffffffffffffffff168152602001908152602001600020549050919050565b6112886121a2565b73ffffffffffffffffffffffffffffffffffffffff166112a66115b7565b73ffffffffffffffffffffffffffffffffffffffff16146112fc576040517f08c379a00000000000000000000000000000000000000000000000000000000081526004016112f390614d77565b60405180910390fd5b611306600061286d565b565b60006113126139bd565b848160000181905250838160200181905250828160400181905250600e81908060018154018082558091505060019003906000526020600020906003020160009091909190915060008201518160000190805190602001906113759291906138ea565b5060208201518160010190805190602001906113929291906139de565b5060408201518160020190805190602001906113af9291906139de565b505050600e805490509150509392505050565b600080600d80549050905060005b81811015611525576000600d82815481106113ee576113ed614aa1565b5b9060005260206000209060020201600001805461140a906148b9565b80601f0160208091040260200160405190810160405280929190818152602001828054611436906148b9565b80156114835780601f1061145857610100808354040283529160200191611483565b820191906000526020600020905b81548152906001019060200180831161146657829003601f168201915b505050505090508460405160200161149b9190614b0c565b60405160208183030381529060405280519060200120816040516020016114c29190614b0c565b60405160208183030381529060405280519060200120141561151157600d82815481106114f2576114f1614aa1565b5b906000526020600020906002020160010180549050935050505061152c565b50808061151d90614b52565b9150506113d0565b5060009150505b919050565b6115396121a2565b73ffffffffffffffffffffffffffffffffffffffff166115576115b7565b73ffffffffffffffffffffffffffffffffffffffff16146115ad576040517f08c379a00000000000000000000000000000000000000000000000000000000081526004016115a490614d77565b60405180910390fd5b6115b5612933565b565b6000600b60019054906101000a900473ffffffffffffffffffffffffffffffffffffffff16905090565b6060600180546115f0906148b9565b80601f016020809104026020016040519081016040528092919081815260200182805461161c906148b9565b80156116695780601f1061163e57610100808354040283529160200191611669565b820191906000526020600020905b81548152906001019060200180831161164c57829003601f168201915b5050505050905090565b61168561167e6121a2565b83836129d6565b5050565b61169a6116946121a2565b83612263565b6116d9576040517f08c379a00000000000000000000000000000000000000000000000000000000081526004016116d090614c79565b60405180910390fd5b6116e584848484612b43565b50505050565b60606116f682612b9f565b9050919050565b60606000600e805480602002602001604051908101604052809291908181526020016000905b828210156119995783829060005260206000209060030201604051806060016040529081600082018054611756906148b9565b80601f0160208091040260200160405190810160405280929190818152602001828054611782906148b9565b80156117cf5780601f106117a4576101008083540402835291602001916117cf565b820191906000526020600020905b8154815290600101906020018083116117b257829003601f168201915b5050505050815260200160018201805480602002602001604051908101604052809291908181526020016000905b828210156118a957838290600052602060002001805461181c906148b9565b80601f0160208091040260200160405190810160405280929190818152602001828054611848906148b9565b80156118955780601f1061186a57610100808354040283529160200191611895565b820191906000526020600020905b81548152906001019060200180831161187857829003601f168201915b5050505050815260200190600101906117fd565b50505050815260200160028201805480602002602001604051908101604052809291908181526020016000905b828210156119825783829060005260206000200180546118f5906148b9565b80601f0160208091040260200160405190810160405280929190818152602001828054611921906148b9565b801561196e5780601f106119435761010080835404028352916020019161196e565b820191906000526020600020905b81548152906001019060200180831161195157829003601f168201915b5050505050815260200190600101906118d6565b505050508152505081526020019060010190611723565b5050505090508091505090565b6119ae6139bd565b6000600e80549050905060005b81811015611caf576000600e82815481106119d9576119d8614aa1565b5b9060005260206000209060030201604051806060016040529081600082018054611a02906148b9565b80601f0160208091040260200160405190810160405280929190818152602001828054611a2e906148b9565b8015611a7b5780601f10611a5057610100808354040283529160200191611a7b565b820191906000526020600020905b815481529060010190602001808311611a5e57829003601f168201915b5050505050815260200160018201805480602002602001604051908101604052809291908181526020016000905b82821015611b55578382906000526020600020018054611ac8906148b9565b80601f0160208091040260200160405190810160405280929190818152602001828054611af4906148b9565b8015611b415780601f10611b1657610100808354040283529160200191611b41565b820191906000526020600020905b815481529060010190602001808311611b2457829003601f168201915b505050505081526020019060010190611aa9565b50505050815260200160028201805480602002602001604051908101604052809291908181526020016000905b82821015611c2e578382906000526020600020018054611ba1906148b9565b80601f0160208091040260200160405190810160405280929190818152602001828054611bcd906148b9565b8015611c1a5780601f10611bef57610100808354040283529160200191611c1a565b820191906000526020600020905b815481529060010190602001808311611bfd57829003601f168201915b505050505081526020019060010190611b82565b505050508152505090508060000151604051602001611c4d9190614b0c565b6040516020818303038152906040528051906020012085604051602001611c749190614b0c565b604051602081830303815290604052805190602001201415611c9b57809350505050611cb2565b508080611ca790614b52565b9150506119bb565b50505b919050565b6000600560008473ffffffffffffffffffffffffffffffffffffffff1673ffffffffffffffffffffffffffffffffffffffff16815260200190815260200160002060008373ffffffffffffffffffffffffffffffffffffffff1673ffffffffffffffffffffffffffffffffffffffff16815260200190815260200160002060009054906101000a900460ff16905092915050565b60606000611d58836111c8565b11611d98576040517f08c379a0000000000000000000000000000000000000000000000000000000008152600401611d8f9061514f565b60405180910390fd5b6000611da5836000610df0565b90506000611db16115b7565b90506000611dbe826111c8565b9050600080600283611dd0919061516f565b67ffffffffffffffff811115611de957611de8613d7e565b5b604051908082528060200260200182016040528015611e175781602001602082028036833780820191505090505b50905060006002600187611e2b9190614df7565b611e359190614dc6565b14611e3f57600191505b8115611ea757600080600190505b84811015611ea057611e5f8682610df0565b838381518110611e7257611e71614aa1565b5b6020026020010181815250508180611e8990614b52565b925050600281611e999190614df7565b9050611e4d565b5050611f01565b6000805b84811015611efe57611ebd8682610df0565b838381518110611ed057611ecf614aa1565b5b6020026020010181815250508180611ee790614b52565b925050600281611ef79190614df7565b9050611eab565b50505b8095505050505050919050565b611f166121a2565b73ffffffffffffffffffffffffffffffffffffffff16611f346115b7565b73ffffffffffffffffffffffffffffffffffffffff1614611f8a576040517f08c379a0000000000000000000000000000000000000000000000000000000008152600401611f8190614d77565b60405180910390fd5b600073ffffffffffffffffffffffffffffffffffffffff168173ffffffffffffffffffffffffffffffffffffffff161415611ffa576040517f08c379a0000000000000000000000000000000000000000000000000000000008152600401611ff190615212565b60405180910390fd5b6120038161286d565b50565b600d818154811061201657600080fd5b9060005260206000209060020201600091509050806000018054612039906148b9565b80601f0160208091040260200160405190810160405280929190818152602001828054612065906148b9565b80156120b25780601f10612087576101008083540402835291602001916120b2565b820191906000526020600020905b81548152906001019060200180831161209557829003601f168201915b5050505050905081565b60007f780e9d63000000000000000000000000000000000000000000000000000000007bffffffffffffffffffffffffffffffffffffffffffffffffffffffff1916827bffffffffffffffffffffffffffffffffffffffffffffffffffffffff1916148061212f575061212e82612cf1565b5b9050919050565b60008073ffffffffffffffffffffffffffffffffffffffff166002600084815260200190815260200160002060009054906101000a900473ffffffffffffffffffffffffffffffffffffffff1673ffffffffffffffffffffffffffffffffffffffff1614159050919050565b600033905090565b816004600083815260200190815260200160002060006101000a81548173ffffffffffffffffffffffffffffffffffffffff021916908373ffffffffffffffffffffffffffffffffffffffff160217905550808273ffffffffffffffffffffffffffffffffffffffff1661221d83611116565b73ffffffffffffffffffffffffffffffffffffffff167f8c5be1e5ebec7d5bd14f71427d1e84f3dd0314c0f7b2291e5b200ac8c7c3b92560405160405180910390a45050565b600061226e82612136565b6122ad576040517f08c379a00000000000000000000000000000000000000000000000000000000081526004016122a4906152a4565b60405180910390fd5b60006122b883611116565b90508073ffffffffffffffffffffffffffffffffffffffff168473ffffffffffffffffffffffffffffffffffffffff16148061232757508373ffffffffffffffffffffffffffffffffffffffff1661230f84610756565b73ffffffffffffffffffffffffffffffffffffffff16145b8061233857506123378185611cb7565b5b91505092915050565b8273ffffffffffffffffffffffffffffffffffffffff1661236182611116565b73ffffffffffffffffffffffffffffffffffffffff16146123b7576040517f08c379a00000000000000000000000000000000000000000000000000000000081526004016123ae90615336565b60405180910390fd5b600073ffffffffffffffffffffffffffffffffffffffff168273ffffffffffffffffffffffffffffffffffffffff161415612427576040517f08c379a000000000000000000000000000000000000000000000000000000000815260040161241e906153c8565b60405180910390fd5b612432838383612dd3565b61243d6000826121aa565b6001600360008573ffffffffffffffffffffffffffffffffffffffff1673ffffffffffffffffffffffffffffffffffffffff168152602001908152602001600020600082825461248d91906153e8565b925050819055506001600360008473ffffffffffffffffffffffffffffffffffffffff1673ffffffffffffffffffffffffffffffffffffffff16815260200190815260200160002060008282546124e49190614df7565b92505081905550816002600083815260200190815260200160002060006101000a81548173ffffffffffffffffffffffffffffffffffffffff021916908373ffffffffffffffffffffffffffffffffffffffff160217905550808273ffffffffffffffffffffffffffffffffffffffff168473ffffffffffffffffffffffffffffffffffffffff167fddf252ad1be2c89b69c2b068fc378daa952ba7f163c4a11628f55a4df523b3ef60405160405180910390a46125a3838383612e2b565b505050565b6125b06110ff565b6125ef576040517f08c379a00000000000000000000000000000000000000000000000000000000081526004016125e690615468565b60405180910390fd5b6000600b60006101000a81548160ff0219169083151502179055507f5db9ee0a495bf2e6ff9c91a7834c1ba4fdd244a5e8aa4e537bd38aeae4b073aa6126336121a2565b6040516126409190613ced565b60405180910390a1565b600081600001549050919050565b6001816000016000828254019250508190555050565b612688828260405180602001604052806000815250612e30565b5050565b606060008214156126d4576040518060400160405280600181526020017f300000000000000000000000000000000000000000000000000000000000000081525090506127e8565b600082905060005b600082146127065780806126ef90614b52565b915050600a826126ff919061516f565b91506126dc565b60008167ffffffffffffffff81111561272257612721613d7e565b5b6040519080825280601f01601f1916602001820160405280156127545781602001600182028036833780820191505090505b5090505b600085146127e15760018261276d91906153e8565b9150600a8561277c9190614dc6565b60306127889190614df7565b60f81b81838151811061279e5761279d614aa1565b5b60200101907effffffffffffffffffffffffffffffffffffffffffffffffffffffffffffff1916908160001a905350600a856127da919061516f565b9450612758565b8093505050505b919050565b6127f682612136565b612835576040517f08c379a000000000000000000000000000000000000000000000000000000000815260040161282c906154fa565b60405180910390fd5b80600a6000848152602001908152602001600020908051906020019061285c9291906138ea565b505050565b61286a81612e8b565b50565b6000600b60019054906101000a900473ffffffffffffffffffffffffffffffffffffffff16905081600b60016101000a81548173ffffffffffffffffffffffffffffffffffffffff021916908373ffffffffffffffffffffffffffffffffffffffff1602179055508173ffffffffffffffffffffffffffffffffffffffff168173ffffffffffffffffffffffffffffffffffffffff167f8be0079c531659141344cd1fd0a4f28419497f9722a3daafe3b4186f6b6457e060405160405180910390a35050565b61293b6110ff565b1561297b576040517f08c379a000000000000000000000000000000000000000000000000000000000815260040161297290615566565b60405180910390fd5b6001600b60006101000a81548160ff0219169083151502179055507f62e78cea01bee320cd4e420270b5ea74000d11b0c9f74754ebdbfc544b05a2586129bf6121a2565b6040516129cc9190613ced565b60405180910390a1565b8173ffffffffffffffffffffffffffffffffffffffff168373ffffffffffffffffffffffffffffffffffffffff161415612a45576040517f08c379a0000000000000000000000000000000000000000000000000000000008152600401612a3c906155d2565b60405180910390fd5b80600560008573ffffffffffffffffffffffffffffffffffffffff1673ffffffffffffffffffffffffffffffffffffffff16815260200190815260200160002060008473ffffffffffffffffffffffffffffffffffffffff1673ffffffffffffffffffffffffffffffffffffffff16815260200190815260200160002060006101000a81548160ff0219169083151502179055508173ffffffffffffffffffffffffffffffffffffffff168373ffffffffffffffffffffffffffffffffffffffff167f17307eab39ab6107e8899845ad3d59bd9653f200f220920489ca2b5937696c3183604051612b369190613b73565b60405180910390a3505050565b612b4e848484612341565b612b5a84848484612ede565b612b99576040517f08c379a0000000000000000000000000000000000000000000000000000000008152600401612b9090615664565b60405180910390fd5b50505050565b6060612baa82612136565b612be9576040517f08c379a0000000000000000000000000000000000000000000000000000000008152600401612be0906156f6565b60405180910390fd5b6000600a60008481526020019081526020016000208054612c09906148b9565b80601f0160208091040260200160405190810160405280929190818152602001828054612c35906148b9565b8015612c825780601f10612c5757610100808354040283529160200191612c82565b820191906000526020600020905b815481529060010190602001808311612c6557829003601f168201915b505050505090506000612c93613066565b9050600081511415612ca9578192505050612cec565b600082511115612cde578082604051602001612cc6929190615716565b60405160208183030381529060405292505050612cec565b612ce784613086565b925050505b919050565b60007f80ac58cd000000000000000000000000000000000000000000000000000000007bffffffffffffffffffffffffffffffffffffffffffffffffffffffff1916827bffffffffffffffffffffffffffffffffffffffffffffffffffffffff19161480612dbc57507f5b5e139f000000000000000000000000000000000000000000000000000000007bffffffffffffffffffffffffffffffffffffffffffffffffffffffff1916827bffffffffffffffffffffffffffffffffffffffffffffffffffffffff1916145b80612dcc5750612dcb8261312d565b5b9050919050565b612ddb6110ff565b15612e1b576040517f08c379a0000000000000000000000000000000000000000000000000000000008152600401612e1290615566565b60405180910390fd5b612e26838383613197565b505050565b505050565b612e3a83836132ab565b612e476000848484612ede565b612e86576040517f08c379a0000000000000000000000000000000000000000000000000000000008152600401612e7d90615664565b60405180910390fd5b505050565b612e9481613485565b6000600a60008381526020019081526020016000208054612eb4906148b9565b905014612edb57600a60008281526020019081526020016000206000612eda9190613a3e565b5b50565b6000612eff8473ffffffffffffffffffffffffffffffffffffffff166135a2565b15613059578373ffffffffffffffffffffffffffffffffffffffff1663150b7a02612f286121a2565b8786866040518563ffffffff1660e01b8152600401612f4a949392919061578f565b6020604051808303816000875af1925050508015612f8657506040513d601f19601f82011682018060405250810190612f8391906157f0565b60015b613009573d8060008114612fb6576040519150601f19603f3d011682016040523d82523d6000602084013e612fbb565b606091505b50600081511415613001576040517f08c379a0000000000000000000000000000000000000000000000000000000008152600401612ff890615664565b60405180910390fd5b805181602001fd5b63150b7a0260e01b7bffffffffffffffffffffffffffffffffffffffffffffffffffffffff1916817bffffffffffffffffffffffffffffffffffffffffffffffffffffffff19161491505061305e565b600190505b949350505050565b60606040518060800160405280605181526020016159b760519139905090565b606061309182612136565b6130d0576040517f08c379a00000000000000000000000000000000000000000000000000000000081526004016130c79061588f565b60405180910390fd5b60006130da613066565b905060008151116130fa5760405180602001604052806000815250613125565b806131048461268c565b604051602001613115929190615716565b6040516020818303038152906040525b915050919050565b60007f01ffc9a7000000000000000000000000000000000000000000000000000000007bffffffffffffffffffffffffffffffffffffffffffffffffffffffff1916827bffffffffffffffffffffffffffffffffffffffffffffffffffffffff1916149050919050565b6131a28383836135c5565b600073ffffffffffffffffffffffffffffffffffffffff168373ffffffffffffffffffffffffffffffffffffffff1614156131e5576131e0816135ca565b613224565b8173ffffffffffffffffffffffffffffffffffffffff168373ffffffffffffffffffffffffffffffffffffffff1614613223576132228382613613565b5b5b600073ffffffffffffffffffffffffffffffffffffffff168273ffffffffffffffffffffffffffffffffffffffff1614156132675761326281613780565b6132a6565b8273ffffffffffffffffffffffffffffffffffffffff168273ffffffffffffffffffffffffffffffffffffffff16146132a5576132a48282613851565b5b5b505050565b600073ffffffffffffffffffffffffffffffffffffffff168273ffffffffffffffffffffffffffffffffffffffff16141561331b576040517f08c379a0000000000000000000000000000000000000000000000000000000008152600401613312906158fb565b60405180910390fd5b61332481612136565b15613364576040517f08c379a000000000000000000000000000000000000000000000000000000000815260040161335b90615967565b60405180910390fd5b61337060008383612dd3565b6001600360008473ffffffffffffffffffffffffffffffffffffffff1673ffffffffffffffffffffffffffffffffffffffff16815260200190815260200160002060008282546133c09190614df7565b92505081905550816002600083815260200190815260200160002060006101000a81548173ffffffffffffffffffffffffffffffffffffffff021916908373ffffffffffffffffffffffffffffffffffffffff160217905550808273ffffffffffffffffffffffffffffffffffffffff16600073ffffffffffffffffffffffffffffffffffffffff167fddf252ad1be2c89b69c2b068fc378daa952ba7f163c4a11628f55a4df523b3ef60405160405180910390a461348160008383612e2b565b5050565b600061349082611116565b905061349e81600084612dd3565b6134a96000836121aa565b6001600360008373ffffffffffffffffffffffffffffffffffffffff1673ffffffffffffffffffffffffffffffffffffffff16815260200190815260200160002060008282546134f991906153e8565b925050819055506002600083815260200190815260200160002060006101000a81549073ffffffffffffffffffffffffffffffffffffffff021916905581600073ffffffffffffffffffffffffffffffffffffffff168273ffffffffffffffffffffffffffffffffffffffff167fddf252ad1be2c89b69c2b068fc378daa952ba7f163c4a11628f55a4df523b3ef60405160405180910390a461359e81600084612e2b565b5050565b6000808273ffffffffffffffffffffffffffffffffffffffff163b119050919050565b505050565b6008805490506009600083815260200190815260200160002081905550600881908060018154018082558091505060019003906000526020600020016000909190919091505550565b60006001613620846111c8565b61362a91906153e8565b905060006007600084815260200190815260200160002054905081811461370f576000600660008673ffffffffffffffffffffffffffffffffffffffff1673ffffffffffffffffffffffffffffffffffffffff168152602001908152602001600020600084815260200190815260200160002054905080600660008773ffffffffffffffffffffffffffffffffffffffff1673ffffffffffffffffffffffffffffffffffffffff168152602001908152602001600020600084815260200190815260200160002081905550816007600083815260200190815260200160002081905550505b6007600084815260200190815260200160002060009055600660008573ffffffffffffffffffffffffffffffffffffffff1673ffffffffffffffffffffffffffffffffffffffff16815260200190815260200160002060008381526020019081526020016000206000905550505050565b6000600160088054905061379491906153e8565b90506000600960008481526020019081526020016000205490506000600883815481106137c4576137c3614aa1565b5b9060005260206000200154905080600883815481106137e6576137e5614aa1565b5b90600052602060002001819055508160096000838152602001908152602001600020819055506009600085815260200190815260200160002060009055600880548061383557613834615987565b5b6001900381819060005260206000200160009055905550505050565b600061385c836111c8565b905081600660008573ffffffffffffffffffffffffffffffffffffffff1673ffffffffffffffffffffffffffffffffffffffff168152602001908152602001600020600083815260200190815260200160002081905550806007600084815260200190815260200160002081905550505050565b604051806040016040528060608152602001606081525090565b8280546138f6906148b9565b90600052602060002090601f016020900481019282613918576000855561395f565b82601f1061393157805160ff191683800117855561395f565b8280016001018555821561395f579182015b8281111561395e578251825591602001919060010190613943565b5b50905061396c9190613a7e565b5090565b8280548282559060005260206000209081019282156139ac579160200282015b828111156139ab578251825591602001919060010190613990565b5b5090506139b99190613a7e565b5090565b60405180606001604052806060815260200160608152602001606081525090565b828054828255906000526020600020908101928215613a2d579160200282015b82811115613a2c578251829080519060200190613a1c9291906138ea565b50916020019190600101906139fe565b5b509050613a3a9190613a9b565b5090565b508054613a4a906148b9565b6000825580601f10613a5c5750613a7b565b601f016020900490600052602060002090810190613a7a9190613a7e565b5b50565b5b80821115613a97576000816000905550600101613a7f565b5090565b5b80821115613abb5760008181613ab29190613a3e565b50600101613a9c565b5090565b6000604051905090565b600080fd5b600080fd5b60007fffffffff0000000000000000000000000000000000000000000000000000000082169050919050565b613b0881613ad3565b8114613b1357600080fd5b50565b600081359050613b2581613aff565b92915050565b600060208284031215613b4157613b40613ac9565b5b6000613b4f84828501613b16565b91505092915050565b60008115159050919050565b613b6d81613b58565b82525050565b6000602082019050613b886000830184613b64565b92915050565b600081519050919050565b600082825260208201905092915050565b60005b83811015613bc8578082015181840152602081019050613bad565b83811115613bd7576000848401525b50505050565b6000601f19601f8301169050919050565b6000613bf982613b8e565b613c038185613b99565b9350613c13818560208601613baa565b613c1c81613bdd565b840191505092915050565b60006020820190508181036000830152613c418184613bee565b905092915050565b6000819050919050565b613c5c81613c49565b8114613c6757600080fd5b50565b600081359050613c7981613c53565b92915050565b600060208284031215613c9557613c94613ac9565b5b6000613ca384828501613c6a565b91505092915050565b600073ffffffffffffffffffffffffffffffffffffffff82169050919050565b6000613cd782613cac565b9050919050565b613ce781613ccc565b82525050565b6000602082019050613d026000830184613cde565b92915050565b613d1181613ccc565b8114613d1c57600080fd5b50565b600081359050613d2e81613d08565b92915050565b60008060408385031215613d4b57613d4a613ac9565b5b6000613d5985828601613d1f565b9250506020613d6a85828601613c6a565b9150509250929050565b600080fd5b600080fd5b7f4e487b7100000000000000000000000000000000000000000000000000000000600052604160045260246000fd5b613db682613bdd565b810181811067ffffffffffffffff82111715613dd557613dd4613d7e565b5b80604052505050565b6000613de8613abf565b9050613df48282613dad565b919050565b600067ffffffffffffffff821115613e1457613e13613d7e565b5b613e1d82613bdd565b9050602081019050919050565b82818337600083830152505050565b6000613e4c613e4784613df9565b613dde565b905082815260208101848484011115613e6857613e67613d79565b5b613e73848285613e2a565b509392505050565b600082601f830112613e9057613e8f613d74565b5b8135613ea0848260208601613e39565b91505092915050565b600060208284031215613ebf57613ebe613ac9565b5b600082013567ffffffffffffffff811115613edd57613edc613ace565b5b613ee984828501613e7b565b91505092915050565b600081519050919050565b600082825260208201905092915050565b6000819050602082019050919050565b613f2781613c49565b82525050565b6000613f398383613f1e565b60208301905092915050565b6000602082019050919050565b6000613f5d82613ef2565b613f678185613efd565b9350613f7283613f0e565b8060005b83811015613fa3578151613f8a8882613f2d565b9750613f9583613f45565b925050600181019050613f76565b5085935050505092915050565b60006020820190508181036000830152613fca8184613f52565b905092915050565b600060208284031215613fe857613fe7613ac9565b5b6000613ff684828501613d1f565b91505092915050565b600081519050919050565b600082825260208201905092915050565b6000819050602082019050919050565b600082825260208201905092915050565b600061404782613b8e565b614051818561402b565b9350614061818560208601613baa565b61406a81613bdd565b840191505092915050565b6000614081838361403c565b905092915050565b6000602082019050919050565b60006140a182613fff565b6140ab818561400a565b9350836020820285016140bd8561401b565b8060005b858110156140f957848403895281516140da8582614075565b94506140e583614089565b925060208a019950506001810190506140c1565b50829750879550505050505092915050565b600060208201905081810360008301526141258184614096565b905092915050565b61413681613c49565b82525050565b6000602082019050614151600083018461412d565b92915050565b6000806000606084860312156141705761416f613ac9565b5b600061417e86828701613d1f565b935050602061418f86828701613d1f565b92505060406141a086828701613c6a565b9150509250925092565b600067ffffffffffffffff8211156141c5576141c4613d7e565b5b602082029050602081019050919050565b600080fd5b60006141ee6141e9846141aa565b613dde565b90508083825260208201905060208402830185811115614211576142106141d6565b5b835b8181101561423a57806142268882613c6a565b845260208401935050602081019050614213565b5050509392505050565b600082601f83011261425957614258613d74565b5b81356142698482602086016141db565b91505092915050565b6000806040838503121561428957614288613ac9565b5b600083013567ffffffffffffffff8111156142a7576142a6613ace565b5b6142b385828601613e7b565b925050602083013567ffffffffffffffff8111156142d4576142d3613ace565b5b6142e085828601614244565b9150509250929050565b600067ffffffffffffffff82111561430557614304613d7e565b5b602082029050602081019050919050565b6000614329614324846142ea565b613dde565b9050808382526020820190506020840283018581111561434c5761434b6141d6565b5b835b8181101561439357803567ffffffffffffffff81111561437157614370613d74565b5b80860161437e8982613e7b565b8552602085019450505060208101905061434e565b5050509392505050565b600082601f8301126143b2576143b1613d74565b5b81356143c2848260208601614316565b91505092915050565b6000806000606084860312156143e4576143e3613ac9565b5b600084013567ffffffffffffffff81111561440257614401613ace565b5b61440e86828701613e7b565b935050602084013567ffffffffffffffff81111561442f5761442e613ace565b5b61443b8682870161439d565b925050604084013567ffffffffffffffff81111561445c5761445b613ace565b5b6144688682870161439d565b9150509250925092565b61447b81613b58565b811461448657600080fd5b50565b60008135905061449881614472565b92915050565b600080604083850312156144b5576144b4613ac9565b5b60006144c385828601613d1f565b92505060206144d485828601614489565b9150509250929050565b600067ffffffffffffffff8211156144f9576144f8613d7e565b5b61450282613bdd565b9050602081019050919050565b600061452261451d846144de565b613dde565b90508281526020810184848401111561453e5761453d613d79565b5b614549848285613e2a565b509392505050565b600082601f83011261456657614565613d74565b5b813561457684826020860161450f565b91505092915050565b6000806000806080858703121561459957614598613ac9565b5b60006145a787828801613d1f565b94505060206145b887828801613d1f565b93505060406145c987828801613c6a565b925050606085013567ffffffffffffffff8111156145ea576145e9613ace565b5b6145f687828801614551565b91505092959194509250565b600081519050919050565b600082825260208201905092915050565b6000819050602082019050919050565b600082825260208201905092915050565b600061464a82613fff565b614654818561462e565b9350836020820285016146668561401b565b8060005b858110156146a257848403895281516146838582614075565b945061468e83614089565b925060208a0199505060018101905061466a565b50829750879550505050505092915050565b600060608301600083015184820360008601526146d1828261403c565b915050602083015184820360208601526146eb828261463f565b91505060408301518482036040860152614705828261463f565b9150508091505092915050565b600061471e83836146b4565b905092915050565b6000602082019050919050565b600061473e82614602565b614748818561460d565b93508360208202850161475a8561461e565b8060005b8581101561479657848403895281516147778582614712565b945061478283614726565b925060208a0199505060018101905061475e565b50829750879550505050505092915050565b600060208201905081810360008301526147c28184614733565b905092915050565b600060608301600083015184820360008601526147e7828261403c565b91505060208301518482036020860152614801828261463f565b9150506040830151848203604086015261481b828261463f565b9150508091505092915050565b6000602082019050818103600083015261484281846147ca565b905092915050565b6000806040838503121561486157614860613ac9565b5b600061486f85828601613d1f565b925050602061488085828601613d1f565b9150509250929050565b7f4e487b7100000000000000000000000000000000000000000000000000000000600052602260045260246000fd5b600060028204905060018216806148d157607f821691505b602082108114156148e5576148e461488a565b5b50919050565b7f4552433732313a20617070726f76656420717565727920666f72206e6f6e657860008201527f697374656e7420746f6b656e0000000000000000000000000000000000000000602082015250565b6000614947602c83613b99565b9150614952826148eb565b604082019050919050565b600060208201905081810360008301526149768161493a565b9050919050565b7f4552433732313a20617070726f76616c20746f2063757272656e74206f776e6560008201527f7200000000000000000000000000000000000000000000000000000000000000602082015250565b60006149d9602183613b99565b91506149e48261497d565b604082019050919050565b60006020820190508181036000830152614a08816149cc565b9050919050565b7f4552433732313a20617070726f76652063616c6c6572206973206e6f74206f7760008201527f6e6572206e6f7220617070726f76656420666f7220616c6c0000000000000000602082015250565b6000614a6b603883613b99565b9150614a7682614a0f565b604082019050919050565b60006020820190508181036000830152614a9a81614a5e565b9050919050565b7f4e487b7100000000000000000000000000000000000000000000000000000000600052603260045260246000fd5b600081905092915050565b6000614ae682613b8e565b614af08185614ad0565b9350614b00818560208601613baa565b80840191505092915050565b6000614b188284614adb565b915081905092915050565b7f4e487b7100000000000000000000000000000000000000000000000000000000600052601160045260246000fd5b6000614b5d82613c49565b91507fffffffffffffffffffffffffffffffffffffffffffffffffffffffffffffffff821415614b9057614b8f614b23565b5b600182019050919050565b7f76697369746f7220646f6573206e6f74206f776e20616e79204e667400000000600082015250565b6000614bd1601c83613b99565b9150614bdc82614b9b565b602082019050919050565b60006020820190508181036000830152614c0081614bc4565b9050919050565b7f4552433732313a207472616e736665722063616c6c6572206973206e6f74206f60008201527f776e6572206e6f7220617070726f766564000000000000000000000000000000602082015250565b6000614c63603183613b99565b9150614c6e82614c07565b604082019050919050565b60006020820190508181036000830152614c9281614c56565b9050919050565b7f455243373231456e756d657261626c653a206f776e657220696e646578206f7560008201527f74206f6620626f756e6473000000000000000000000000000000000000000000602082015250565b6000614cf5602b83613b99565b9150614d0082614c99565b604082019050919050565b60006020820190508181036000830152614d2481614ce8565b9050919050565b7f4f776e61626c653a2063616c6c6572206973206e6f7420746865206f776e6572600082015250565b6000614d61602083613b99565b9150614d6c82614d2b565b602082019050919050565b60006020820190508181036000830152614d9081614d54565b9050919050565b7f4e487b7100000000000000000000000000000000000000000000000000000000600052601260045260246000fd5b6000614dd182613c49565b9150614ddc83613c49565b925082614dec57614deb614d97565b5b828206905092915050565b6000614e0282613c49565b9150614e0d83613c49565b9250827fffffffffffffffffffffffffffffffffffffffffffffffffffffffffffffffff03821115614e4257614e41614b23565b5b828201905092915050565b7f2e6a736f6e000000000000000000000000000000000000000000000000000000600082015250565b6000614e83600583614ad0565b9150614e8e82614e4d565b600582019050919050565b6000614ea58284614adb565b9150614eb082614e76565b915081905092915050565b7f4552433732314275726e61626c653a2063616c6c6572206973206e6f74206f7760008201527f6e6572206e6f7220617070726f76656400000000000000000000000000000000602082015250565b6000614f17603083613b99565b9150614f2282614ebb565b604082019050919050565b60006020820190508181036000830152614f4681614f0a565b9050919050565b7f455243373231456e756d657261626c653a20676c6f62616c20696e646578206f60008201527f7574206f6620626f756e64730000000000000000000000000000000000000000602082015250565b6000614fa9602c83613b99565b9150614fb482614f4d565b604082019050919050565b60006020820190508181036000830152614fd881614f9c565b9050919050565b7f4552433732313a206f776e657220717565727920666f72206e6f6e657869737460008201527f656e7420746f6b656e0000000000000000000000000000000000000000000000602082015250565b600061503b602983613b99565b915061504682614fdf565b604082019050919050565b6000602082019050818103600083015261506a8161502e565b9050919050565b7f4552433732313a2062616c616e636520717565727920666f7220746865207a6560008201527f726f206164647265737300000000000000000000000000000000000000000000602082015250565b60006150cd602a83613b99565b91506150d882615071565b604082019050919050565b600060208201905081810360008301526150fc816150c0565b9050919050565b7f73656e64657220646f6573206e6f74206f776e206e6674000000000000000000600082015250565b6000615139601783613b99565b915061514482615103565b602082019050919050565b600060208201905081810360008301526151688161512c565b9050919050565b600061517a82613c49565b915061518583613c49565b92508261519557615194614d97565b5b828204905092915050565b7f4f776e61626c653a206e6577206f776e657220697320746865207a65726f206160008201527f6464726573730000000000000000000000000000000000000000000000000000602082015250565b60006151fc602683613b99565b9150615207826151a0565b604082019050919050565b6000602082019050818103600083015261522b816151ef565b9050919050565b7f4552433732313a206f70657261746f7220717565727920666f72206e6f6e657860008201527f697374656e7420746f6b656e0000000000000000000000000000000000000000602082015250565b600061528e602c83613b99565b915061529982615232565b604082019050919050565b600060208201905081810360008301526152bd81615281565b9050919050565b7f4552433732313a207472616e736665722066726f6d20696e636f72726563742060008201527f6f776e6572000000000000000000000000000000000000000000000000000000602082015250565b6000615320602583613b99565b915061532b826152c4565b604082019050919050565b6000602082019050818103600083015261534f81615313565b9050919050565b7f4552433732313a207472616e7366657220746f20746865207a65726f2061646460008201527f7265737300000000000000000000000000000000000000000000000000000000602082015250565b60006153b2602483613b99565b91506153bd82615356565b604082019050919050565b600060208201905081810360008301526153e1816153a5565b9050919050565b60006153f382613c49565b91506153fe83613c49565b92508282101561541157615410614b23565b5b828203905092915050565b7f5061757361626c653a206e6f7420706175736564000000000000000000000000600082015250565b6000615452601483613b99565b915061545d8261541c565b602082019050919050565b6000602082019050818103600083015261548181615445565b9050919050565b7f45524337323155524953746f726167653a2055524920736574206f66206e6f6e60008201527f6578697374656e7420746f6b656e000000000000000000000000000000000000602082015250565b60006154e4602e83613b99565b91506154ef82615488565b604082019050919050565b60006020820190508181036000830152615513816154d7565b9050919050565b7f5061757361626c653a2070617573656400000000000000000000000000000000600082015250565b6000615550601083613b99565b915061555b8261551a565b602082019050919050565b6000602082019050818103600083015261557f81615543565b9050919050565b7f4552433732313a20617070726f766520746f2063616c6c657200000000000000600082015250565b60006155bc601983613b99565b91506155c782615586565b602082019050919050565b600060208201905081810360008301526155eb816155af565b9050919050565b7f4552433732313a207472616e7366657220746f206e6f6e20455243373231526560008201527f63656976657220696d706c656d656e7465720000000000000000000000000000602082015250565b600061564e603283613b99565b9150615659826155f2565b604082019050919050565b6000602082019050818103600083015261567d81615641565b9050919050565b7f45524337323155524953746f726167653a2055524920717565727920666f722060008201527f6e6f6e6578697374656e7420746f6b656e000000000000000000000000000000602082015250565b60006156e0603183613b99565b91506156eb82615684565b604082019050919050565b6000602082019050818103600083015261570f816156d3565b9050919050565b60006157228285614adb565b915061572e8284614adb565b91508190509392505050565b600081519050919050565b600082825260208201905092915050565b60006157618261573a565b61576b8185615745565b935061577b818560208601613baa565b61578481613bdd565b840191505092915050565b60006080820190506157a46000830187613cde565b6157b16020830186613cde565b6157be604083018561412d565b81810360608301526157d08184615756565b905095945050505050565b6000815190506157ea81613aff565b92915050565b60006020828403121561580657615805613ac9565b5b6000615814848285016157db565b91505092915050565b7f4552433732314d657461646174613a2055524920717565727920666f72206e6f60008201527f6e6578697374656e7420746f6b656e0000000000000000000000000000000000602082015250565b6000615879602f83613b99565b91506158848261581d565b604082019050919050565b600060208201905081810360008301526158a88161586c565b9050919050565b7f4552433732313a206d696e7420746f20746865207a65726f2061646472657373600082015250565b60006158e5602083613b99565b91506158f0826158af565b602082019050919050565b60006020820190508181036000830152615914816158d8565b9050919050565b7f4552433732313a20746f6b656e20616c7265616479206d696e74656400000000600082015250565b6000615951601c83613b99565b915061595c8261591b565b602082019050919050565b6000602082019050818103600083015261598081615944565b9050919050565b7f4e487b7100000000000000000000000000000000000000000000000000000000600052603160045260246000fdfe68747470733a2f2f676174657761792e70696e6174612e636c6f75642f697066732f516d586f744a78436152484e6b7177486d4d6b667236654d546a694533784843634667636d364679796339317a4e2fa264697066735822122061b8f658663deb3395d20762aacac57e18b1d3a8d1a7834d94e380563ccd66df64736f6c634300080b0033",
  "immutableReferences": {},
  "source": "// SPDX-License-Identifier: MIT\npragma solidity ^0.8.4;\n\nimport \"@openzeppelin/contracts/token/ERC721/ERC721.sol\";\nimport \"@openzeppelin/contracts/token/ERC721/extensions/ERC721Enumerable.sol\";\nimport \"@openzeppelin/contracts/token/ERC721/extensions/ERC721URIStorage.sol\";\nimport \"@openzeppelin/contracts/security/Pausable.sol\";\nimport \"@openzeppelin/contracts/access/Ownable.sol\";\nimport \"@openzeppelin/contracts/token/ERC721/extensions/ERC721Burnable.sol\";\nimport \"@openzeppelin/contracts/utils/Counters.sol\";\nimport \"@openzeppelin/contracts/utils/Strings.sol\";\n\ncontract TokenGating is ERC721, ERC721Enumerable, ERC721URIStorage, Pausable, Ownable, ERC721Burnable {\n    using Counters for Counters.Counter;\n\n    Counters.Counter private _tokenIdCounter;\n    event collectionCreated(string indexed nameOfCollection);\n\n    constructor() ERC721(\"tokenGating\", \"gate\") {\n        \n     }\n\n    struct collection{\n        string collectionName;\n        uint256[] tokenIdListOfCollection;\n    }\n    collection[] public collections;\n\n    struct promo{\n        string promoName;\n        string[] eligibleCollections;\n        string[] earlyAccessCollections;\n    }\n\n    promo[] promos;\n\n//map tokenid to collection\nmapping(uint256 => string) tokenIdToCollectionmap;\n\n\n/*\n\ncollection A - tokenid 0, 1\ncollection B - tokenid 2, 3\ncollection C - tokenid 4, 5\ncollection D - tokenid 6, 7\n// createCollection(uint[] memory ids, string memory name) returns (uint256 indexOfCollection)\n//getcollection(string name) returns (uint[] memory)\n\n\npromo 1 -- eligible collection =A, earlyaccess=C\npromo 2 -- eligible collection =B, earlyaccess=D\n\ngetEligibleTokens(promo1, userOwnedTokenId){\npromo[] = gsteligiblePromos(userownedTokenId)\nforeach(promo[]){\n    uint256[]= tokenIdList(promo.earlyaccesscollection)\n}\n}\n\n//getallEAtokens(address) returns (int[] memory)returns(uint[] memory){\n    promo[] EApromos= getAllEligiblePromos(address);\n   uint256[] EATokenIds = getAllEATokenIds(promo[] );\n   return EATokenIds; \n}\n\nback                           front\n                                address\nstring[] collectionsOwned       \npromo[] promos                  \n                                compile eligible promos\n                                compile eligibleEAcollection\ngetCollection               \n                                append the int[] to get EAtokenIds\n\n\n\n */\n\nfunction createCollection(string memory _name, uint256[] memory _ids) public returns(uint256){\n    collection memory newCollection;\n    newCollection.collectionName= _name;\n    newCollection.tokenIdListOfCollection= _ids;\n    //map ids to collection\n    uint256 len = _ids.length;\n    for(uint256 i=0;i<len;i++){\n        tokenIdToCollectionmap[_ids[i]]= _name;\n    }\n\n    collections.push(newCollection);\n    emit collectionCreated(_name);\n    return collections.length;\n}\n\nfunction getCollection(string memory _name)view public returns (uint256[] memory){\n    uint256 len = collections.length;\n    for(uint256 i=0;i<len;i++){\n        string memory colName = collections[i].collectionName ;\n        if(keccak256(abi.encodePacked(colName)) == keccak256(abi.encodePacked(_name))){\n            return collections[i].tokenIdListOfCollection;\n        }\n    }\n    uint256[] memory nullRet;\n    return nullRet;\n    \n}\n\nfunction getCollectionSize(string memory _name)view public returns(uint256){\n    uint256 len = collections.length;\n    for(uint256 i=0;i<len;i++){\n        string memory colName = collections[i].collectionName ;\n        if(keccak256(abi.encodePacked(colName)) == keccak256(abi.encodePacked(_name))){\n            return collections[i].tokenIdListOfCollection.length;\n        }\n    }\n    return 0;\n}\n\nfunction createPromo(string memory _name, string[] memory _eligibleColl, string[] memory _earlyAccessColl) public returns(uint256 ){\n    promo memory newPromo;\n    newPromo.promoName = _name;\n    newPromo.eligibleCollections =_eligibleColl;\n    newPromo.earlyAccessCollections = _earlyAccessColl;\n    promos.push(newPromo);\n    return promos.length;\n}\n\nfunction getPromo(string memory _name) public view returns(promo memory){\n    uint256 len = promos.length;\n    for(uint256 i=0; i<len;i++){\n        promo memory selectedPromo = promos[i];\n        if(keccak256(abi.encodePacked(_name)) == keccak256(abi.encodePacked(selectedPromo.promoName))){\n            return selectedPromo;\n        }\n    }\n}\n\nfunction getOwnedCollection(address _visitor) public view returns(string[] memory){\n    uint256 _bal = balanceOf(_visitor);\n    require(_bal > 0 ,\"visitor does not own any Nft\");\n    string[] memory listOfCollections = new string[](_bal);\n    for(uint256 i=0; i<_bal;i++){\n        uint256 _tId = tokenOfOwnerByIndex(_visitor,i);\n        listOfCollections[i] = tokenIdToCollectionmap[_tId];\n    }\n    return listOfCollections;\n}\n\nfunction getAllPromos() public view returns(promo[] memory allprom){\n    promo[] memory  allprom= promos;\n    return allprom;\n}\n\n// function getAlltokensOfCollectionArray(string[] memory _EACollections)view public returns(uint256[] memory _EATokenIds){\n//     //no of collections\n//     uint256 colLen = _EACollections.length;\n//     uint256 tIdLen;\n//     //no of tokenids in collections and create memory array\n//     for(uint256 i=0;i<colLen;i++){\n//         tIdLen += getCollectionSize(_EACollections[i]);        \n//     }\n//     //append all tokenids and return\n//     uint256[] memory _EATokenIds = new uint256[](tIdLen);\n//     for(uint256 i=0;i<colLen;i++){\n//         uint[]  memory currList = getCollection(_EACollections[i]); \n//         uint256 aas =getCollectionSize(_EACollections[i]);\n//         for(uint256)\n\n//     }\n\n// }\n\n\n\n function fetchEligible(address _visitor) public view returns(uint256[] memory){\n     require(balanceOf(_visitor)>0,\"sender does not own nft\");\n     uint256 _tId=tokenOfOwnerByIndex(_visitor, 0); //6\n     address _ownr= owner();\n     uint256 _promoSupply=balanceOf(_ownr);//6\n     bool isOdd = false;\n      uint[] memory idList= new uint256[](_promoSupply/2);\n      if((_tId+1)%2 != 0) isOdd = true;\n    if(isOdd){\n         uint256 _cntr=0;\n         for(uint256 i=1; i<_promoSupply;i=i+2){\n             idList[_cntr]=(tokenOfOwnerByIndex(_ownr, i));\n             _cntr++;\n        }\n      }else{\n         uint256 _cntr=0;\n         for(uint256 i=0; i<_promoSupply;i=i+2){\n             idList[_cntr]=(tokenOfOwnerByIndex(_ownr, i));\n             _cntr++;\n         }       \n    }\n     return idList;\n }\n\n//create collection object having ids of nfts in that collection\n// create promo object having {eligible collections, earlyaccess collections}\n//fetch eligible promos\n//fetch early access nfts from eligible collections\n\n\n\n\n\n\n\n    function _baseURI() internal pure override returns (string memory) {\n        return \"https://gateway.pinata.cloud/ipfs/QmXotJxCaRHNkqwHmMkfr6eMTjiE3xHCcFgcm6Fyyc91zN/\";\n    }\n\n    function pause() public onlyOwner {\n        _pause();\n    }\n\n    function unpause() public onlyOwner {\n        _unpause();\n    }\n\n    function safeMint(address to) public onlyOwner {\n        uint256 tokenId = _tokenIdCounter.current();\n        uint256 metaId= (tokenId %9)+1;\n        _tokenIdCounter.increment();\n        _safeMint(to, tokenId);\n\n        string memory tokenadd= string(abi.encodePacked(Strings.toString(metaId),\".json\"));\n        _setTokenURI(tokenId, tokenadd);\n    }\n\n    function _beforeTokenTransfer(address from, address to, uint256 tokenId)\n        internal\n        whenNotPaused\n        override(ERC721, ERC721Enumerable)\n    {\n        super._beforeTokenTransfer(from, to, tokenId);\n    }\n\n    // The following functions are overrides required by Solidity.\n\n    function _burn(uint256 tokenId) internal override(ERC721, ERC721URIStorage) {\n        super._burn(tokenId);\n    }\n\n    function tokenURI(uint256 tokenId)\n        public\n        view\n        override(ERC721, ERC721URIStorage)\n        returns (string memory)\n    {\n        return super.tokenURI(tokenId);\n    }\n\n    function supportsInterface(bytes4 interfaceId)\n        public\n        view\n        override(ERC721, ERC721Enumerable)\n        returns (bool)\n    {\n        return super.supportsInterface(interfaceId);\n    }\n}\n",
  "sourcePath": "/home/falcon46/Documents/projects/TokenGating/nftTokenGating/contracts/TokenGating.sol",
  "compiler": {
    "name": "solc",
    "version": "0.8.11+commit.d7f03943.Emscripten.clang"
  },
  "schemaVersion": "3.4.4",
  "updatedAt": "2022-03-02T14:24:04.078Z",
  "networkType": "ethereum",
  "devdoc": {
    "kind": "dev",
    "methods": {
      "approve(address,uint256)": {
        "details": "See {IERC721-approve}."
      },
      "balanceOf(address)": {
        "details": "See {IERC721-balanceOf}."
      },
      "burn(uint256)": {
        "details": "Burns `tokenId`. See {ERC721-_burn}. Requirements: - The caller must own `tokenId` or be an approved operator."
      },
      "getApproved(uint256)": {
        "details": "See {IERC721-getApproved}."
      },
      "isApprovedForAll(address,address)": {
        "details": "See {IERC721-isApprovedForAll}."
      },
      "name()": {
        "details": "See {IERC721Metadata-name}."
      },
      "owner()": {
        "details": "Returns the address of the current owner."
      },
      "ownerOf(uint256)": {
        "details": "See {IERC721-ownerOf}."
      },
      "paused()": {
        "details": "Returns true if the contract is paused, and false otherwise."
      },
      "renounceOwnership()": {
        "details": "Leaves the contract without owner. It will not be possible to call `onlyOwner` functions anymore. Can only be called by the current owner. NOTE: Renouncing ownership will leave the contract without an owner, thereby removing any functionality that is only available to the owner."
      },
      "safeTransferFrom(address,address,uint256)": {
        "details": "See {IERC721-safeTransferFrom}."
      },
      "safeTransferFrom(address,address,uint256,bytes)": {
        "details": "See {IERC721-safeTransferFrom}."
      },
      "setApprovalForAll(address,bool)": {
        "details": "See {IERC721-setApprovalForAll}."
      },
      "symbol()": {
        "details": "See {IERC721Metadata-symbol}."
      },
      "tokenByIndex(uint256)": {
        "details": "See {IERC721Enumerable-tokenByIndex}."
      },
      "tokenOfOwnerByIndex(address,uint256)": {
        "details": "See {IERC721Enumerable-tokenOfOwnerByIndex}."
      },
      "totalSupply()": {
        "details": "See {IERC721Enumerable-totalSupply}."
      },
      "transferFrom(address,address,uint256)": {
        "details": "See {IERC721-transferFrom}."
      },
      "transferOwnership(address)": {
        "details": "Transfers ownership of the contract to a new account (`newOwner`). Can only be called by the current owner."
      }
    },
    "version": 1
  },
  "userdoc": {
    "kind": "user",
    "methods": {},
    "version": 1
  }
}